:020000025000AC
:200000005A0001F010F01FF02EF03DF04CF05BF06AF079F088F097F0A6F0B5F0C4F0D3F040
:20002000E2F0F1F0FEF00FF01EF02DF03CF04BF05AF069F078F087F096F0A5F0B4F0C3F09A
:20004000D2F0E1F0F0F0FEF00EF01DF02CF03BF04AF059F068F077F086F095F0A4F0B3F079
:20006000C2F0D1F0E0F0EFF0FEF00DF01CF02BF03AF049F058F067F076F085F094F0A3F058
:20008000B2F0C1F0D0F0DFF0EEF0FDF00CF01BF02AF039F048F057F066F075F084F093F038
:2000A000A2F0B1F0C0F0CFF0DEF0EDF0FCF00BF01AF029F038F047F056F065F074F083F018
:2000C00092F0A1F0B0F0BFF0CEF0DDF0ECF0FBF00AF019F028F037F046F055F064F073F0F8
:2000E00082F091F0A0F0AFF0BEF0CDF0DCF0EBF0FAF009F018F027F036F045F054F063F0D8
:2001000072F081F090F09FF0AEF0BDF0CCF0DBF0EAF0F9F008F017F026F035F044F053F0B7
:2001200062F071F080F08FF09EF0ADF0BCF0CBF0DAF0E9F0F8F007F016F025F034F043F097
:2001400052F061F070F07FF08EF09DF0ACF0BBF0CAF0D9F0E8F0F7F006F015F024F033F077
:2001600042F051F060F06FF07EF08DF09CF0ABF0BAF0C9F0D8F0E7F0F6F005F014F023F057
:2001800032F041F050F05FF06EF07DF08CF09BF0AAF0B9F0C8F0D7F0E6F0F5F004F013F037
:2001A00022F031F040F04FF05EF06DF07CF08BF09AF0A9F0B8F0C7F0D6F0E5F0F4F003F017
:2001C00012F021F030F03FF04EF05DF06CF07BF08AF099F0A8F0B7F0C6F0D5F0E4F0F3F0F7
:2001E00002F011F020F02FF03EF04DF05CF06BF07AF089F098F0A7F0B6F0C5F0D4F0E3F0D7
:20020000F2F001F010F01FF02EF03DF04CF05BF06AF079F088F097F0A6F0B5F0C4F0D3F0B6
:20022000E2F0F1F0FEF00FF01EF02DF03CF04BF05AF069F078F087F096F0A5F0B4F0C3F098
:20024000D2F0E1F0F0F0FEF00EF01DF02CF03BF04AF059F068F077F086F095F0A4F0B3F077
:20026000C2F0D1F0E0F0EFF0FEF00DF01CF02BF03AF049F058F067F076F085F094F0A3F056
:20028000B2F0C1F0D0F0DFF0EEF0FDF00CF01BF02AF039F048F057F066F075F084F093F036
:2002A000A2F0B1F0C0F0CFF0DEF0EDF0FCF00BF01AF029F038F047F056F065F074F083F016
:2002C00092F0A1F0B0F0BFF0CEF0DDF0ECF0FBF00AF019F028F037F046F055F064F073F0F6
:2002E00082F091F0A0F0AFF0BEF0CDF0DCF0EBF0FAF009F018F027F036F045F054F063F0D6
:2003000072F081F090F09FF0AEF0BDF0CCF0DBF0EAF0F9F008F017F026F035F044F053F0B5
:2003200062F071F080F08FF09EF0ADF0BCF0CBF0DAF0E9F0F8F007F016F025F034F043F095
:2003400052F061F070F07FF08EF09DF0ACF0BBF0CAF0D9F0E8F0F7F006F015F024F033F075
:2003600042F051F060F06FF07EF08DF09CF0ABF0BAF0C9F0D8F0E7F0F6F005F014F023F055
:2003800032F041F050F05FF06EF07DF08CF09BF0AAF0B9F0C8F0D7F0E6F0F5F004F013F035
:2003A00022F031F040F04FF05EF06DF07CF08BF09AF0A9F0B8F0C7F0D6F0E5F0F4F003F015
:2003C00012F021F030F03FF04EF05DF06CF07BF08AF099F0A8F0B7F0C6F0D5F0E4F0F3F0F5
:2003E00002F011F020F02FF03EF04DF05CF06BF07AF089F098F0A7F0B6F0C5F0D4F0E3F0D5
:20040000F2F001F010F01FF02EF03DF04CF05BF06AF079F088F097F0A6F0B5F0C4F0D3F0B4
:20042000E2F0F1F0FEF00FF01EF02DF03CF04BF05AF069F078F087F096F0A5F0B4F0C3F096
:20044000D2F0E1F0F0F0FEF00EF01DF02CF03BF04AF059F068F077F086F095F0A4F0B3F075
:20046000C2F0D1F0E0F0EFF0FEF00DF01CF02BF03AF049F058F067F076F085F094F0A3F054
:20048000B2F0C1F0D0F0DFF0EEF0FDF00CF01BF02AF039F048F057F066F075F084F093F034
:2004A000A2F0B1F0C0F0CFF0DEF0EDF0FCF00BF01AF029F038F047F056F065F074F083F014
:2004C00092F0A1F0B0F0BFF0CEF0DDF0ECF0FBF00AF019F028F037F046F055F064F073F0F4
:2004E00082F091F0A0F0AFF0BEF0CDF0DCF0EBF0FAF009F018F027F036F045F054F063F0D4
:2005000072F081F090F09FF0AEF0BDF0CCF0DBF0EAF0F9F008F017F026F035F044F053F0B3
:2005200062F071F080F08FF09EF0ADF0BCF0CBF0DAF0E9F0F8F007F016F025F034F043F093
:2005400052F061F070F07FF08EF09DF0ACF0BBF0CAF0D9F0E8F0F7F006F015F024F033F073
:2005600042F051F060F06FF07EF08DF09CF0ABF0BAF0C9F0D8F0E7F0F6F005F014F023F053
:2005800032F041F050F05FF06EF07DF08CF09BF0AAF0B9F0C8F0D7F0E6F0F5F004F013F033
:2005A00022F031F040F04FF05EF06DF07CF08BF09AF0A9F0B8F0C7F0D6F0E5F0F4F003F013
:2005C00012F021F030F03FF04EF05DF06CF07BF08AF099F0A8F0B7F0C6F0D5F0E4F0F3F0F3
:2005E00002F011F020F02FF03EF04DF05CF06BF07AF089F098F0A7F0B6F0C5F0D4F0E3F0D3
:20060000F2F001F010F01FF02EF03DF04CF05BF06AF079F088F097F0A6F0B5F0C4F0D3F0B2
:20062000E2F0F1F0FEF00FF01EF02DF03CF04BF05AF069F078F087F096F0A5F0B4F0C3F094
:20064000D2F0E1F0F0F0FEF00EF01DF02CF03BF04AF059F068F077F086F095F0A4F0B3F073
:20066000C2F0D1F0E0F0EFF0FEF00DF01CF02BF03AF049F058F067F076F085F094F0A3F052
:20068000B2F0C1F0D0F0DFF0EEF0FDF00CF01BF02AF039F048F057F066F075F084F093F032
:2006A000A2F0B1F0C0F0CFF0DEF0EDF0FCF00BF01AF029F038F047F056F065F074F083F012
:2006C00092F0A1F0B0F0BFF0CEF0DDF0ECF0FBF00AF019F028F037F046F055F064F073F0F2
:2006E00082F091F0A0F0AFF0BEF0CDF0DCF0EBF0FAF009F018F027F036F045F054F063F0D2
:2007000072F081F090F09FF0AEF0BDF0CCF0DBF0EAF0F9F008F017F026F035F044F053F0B1
:2007200062F071F080F08FF09EF0ADF0BCF0CBF0DAF0E9F0F8F007F016F025F034F043F091
:2007400052F061F070F07FF08EF09DF0ACF0BBF0CAF0D9F0E8F0F7F006F015F024F033F071
:2007600042F051F060F06FF07EF08DF09CF0ABF0BAF0C9F0D8F0E7F0F6F005F014F023F051
:2007800032F041F050F05FF06EF07DF08CF09BF0AAF0B9F0C8F0D7F0E6F0F5F004F013F031
:2007A00022F031F040F04FF05EF06DF07CF08BF09AF0A9F0B8F0C7F0D6F0E5F0F4F003F011
:2007C00012F021F030F03FF04EF05DF06CF07BF08AF099F0A8F0B7F0C6F0D5F0E4F0F3F0F1
:2007E00002F011F020F02FF03EF04DF05CF06BF07AF089F098F0A7F0B6F0C5F0D4F0E3F0D1
:20080000F2F001F010F01FF02EF03DF04CF05BF06AF079F088F097F0A6F0B5F0C4F0D3F0B0
:20082000E2F0F1F0FEF00FF01EF02DF03CF04BF05AF069F078F087F096F0A5F0B4F0C3F092
:20084000D2F0E1F0F0F0FEF00EF01DF02CF03BF04AF059F068F077F086F095F0A4F0B3F071
:20086000C2F0D1F0E0F0EFF0FEF00DF01CF02BF03AF049F058F067F076F085F094F0A3F050
:20088000B2F0C1F0D0F0DFF0EEF0FDF00CF01BF02AF039F048F057F066F075F084F093F030
:2008A000A2F0B1F0C0F0CFF0DEF0EDF0FCF00BF01AF029F038F047F056F065F074F083F010
:2008C00092F0A1F0B0F0BFF0CEF0DDF0ECF0FBF00AF019F028F037F046F055F064F073F0F0
:2008E00082F091F0A0F0AFF0BEF0CDF0DCF0EBF0FAF009F018F027F036F045F054F063F0D0
:2009000072F081F090F09FF0AEF0BDF0CCF0DBF0EAF0F9F008F017F026F035F044F053F0AF
:2009200062F071F080F08FF09EF0ADF0BCF0CBF0DAF0E9F0F8F007F016F025F034F043F08F
:2009400052F061F070F07FF08EF09DF0ACF0BBF0CAF0D9F0E8F0F7F006F015F024F033F06F
:2009600042F051F060F06FF07EF08DF09CF0ABF0BAF0C9F0D8F0E7F0F6F005F014F023F04F
:2009800032F041F050F05FF06EF07DF08CF09BF0AAF0B9F0C8F0D7F0E6F0F5F004F013F02F
:2009A00022F031F040F04FF05EF06DF07CF08BF09AF0A9F0B8F0C7F0D6F0E5F0F4F003F00F
:2009C00012F021F030F03FF04EF05DF06CF07BF08AF099F0A8F0B7F0C6F0D5F0E4F0F3F0EF
:2009E00002F011F020F02FF03EF04DF05CF06BF07AF089F098F0A7F0B6F0C5F0D4F0E3F0CF
:200A0000F2F001F010F01FF02EF03DF04CF05BF06AF079F088F097F0A6F0B5F0C4F0D3F0AE
:200A2000E2F0F1F0FEF00FF01EF02DF03CF04BF05AF069F078F087F096F0A5F0B4F0C3F090
:200A4000D2F0E1F0F0F0FEF00EF01DF02CF03BF04AF059F068F077F086F095F0A4F0B3F06F
:200A6000C2F0D1F0E0F0EFF0FEF00DF01CF02BF03AF049F058F067F076F085F094F0A3F04E
:200A8000B2F0C1F0D0F0DFF0EEF0FDF00CF01BF02AF039F048F057F066F075F084F093F02E
:200AA000A2F0B1F0C0F0CFF0DEF0EDF0FCF00BF01AF029F038F047F056F065F074F083F00E
:200AC00092F0A1F0B0F0BFF0CEF0DDF0ECF0FBF00AF019F028F037F046F055F064F073F0EE
:200AE00082F091F0A0F0AFF0BEF0CDF0DCF0EBF0FAF009F018F027F036F045F054F063F0CE
:200B000072F081F090F09FF0AEF0BDF0CCF0DBF0EAF0F9F008F017F026F035F044F053F0AD
:200B200062F071F080F08FF09EF0ADF0BCF0CBF0DAF0E9F0F8F007F016F025F034F043F08D
:200B400052F061F070F07FF08EF09DF0ACF0BBF0CAF0D9F0E8F0F7F006F015F024F033F06D
:200B600042F051F060F06FF07EF08DF09CF0ABF0BAF0C9F0D8F0E7F0F6F005F014F023F04D
:200B800032F041F050F05FF06EF07DF08CF09BF0AAF0B9F0C8F0D7F0E6F0F5F004F013F02D
:200BA00022F031F040F04FF05EF06DF07CF08BF09AF0A9F0B8F0C7F0D6F0E5F0F4F003F00D
:200BC00012F021F030F03FF04EF05DF06CF07BF08AF099F0A8F0B7F0C6F0D5F0E4F0F3F0ED
:200BE00002F011F020F02FF03EF04DF05CF06BF07AF089F098F0A7F0B6F0C5F0D4F0E3F0CD
:200C0000F2F001F010F01FF02EF03DF04CF05BF06AF079F088F097F0A6F0B5F0C4F0D3F0AC
:200C2000E2F0F1F0FEF00FF01EF02DF03CF04BF05AF069F078F087F096F0A5F0B4F0C3F08E
:200C4000D2F0E1F0F0F0FEF00EF01DF02CF03BF04AF059F068F077F086F095F0A4F0B3F06D
:200C6000C2F0D1F0E0F0EFF0FEF00DF01CF02BF03AF049F058F067F076F085F094F0A3F04C
:200C8000B2F0C1F0D0F0DFF0EEF0FDF00CF01BF02AF039F048F057F066F075F084F093F02C
:200CA000A2F0B1F0C0F0CFF0DEF0EDF0FCF00BF01AF029F038F047F056F065F074F083F00C
:200CC00092F0A1F0B0F0BFF0CEF0DDF0ECF0FBF00AF019F028F037F046F055F064F073F0EC
:200CE00082F091F0A0F0AFF0BEF0CDF0DCF0EBF0FAF009F018F027F036F045F054F063F0CC
:200D000072F081F090F09FF0AEF0BDF0CCF0DBF0EAF0F9F008F017F026F035F044F053F0AB
:200D200062F071F080F08FF09EF0ADF0BCF0CBF0DAF0E9F0F8F007F016F025F034F043F08B
:200D400052F061F070F07FF08EF09DF0ACF0BBF0CAF0D9F0E8F0F7F006F015F024F033F06B
:200D600042F051F060F06FF07EF08DF09CF0ABF0BAF0C9F0D8F0E7F0F6F005F014F023F04B
:200D800032F041F050F05FF06EF07DF08CF09BF0AAF0B9F0C8F0D7F0E6F0F5F004F013F02B
:200DA00022F031F040F04FF05EF06DF07CF08BF09AF0A9F0B8F0C7F0D6F0E5F0F4F003F00B
:200DC00012F021F030F03FF04EF05DF06CF07BF08AF099F0A8F0B7F0C6F0D5F0E4F0F3F0EB
:200DE00002F011F020F02FF03EF04DF05CF06BF07AF089F098F0A7F0B6F0C5F0D4F0E3F0CB
:200E0000F2F001F010F01FF02EF03DF04CF05BF06AF079F088F097F0A6F0B5F0C4F0D3F0AA
:200E2000E2F0F1F0FEF00FF01EF02DF03CF04BF05AF069F078F087F096F0A5F0B4F0C3F08C
:200E4000D2F0E1F0F0F0FEF00EF01DF02CF03BF04AF059F068F077F086F095F0A4F0B3F06B
:200E6000C2F0D1F0E0F0EFF0FEF00DF01CF02BF03AF049F058F067F076F085F094F0A3F04A
:200E8000B2F0C1F0D0F0DFF0EEF0FDF00CF01BF02AF039F048F057F066F075F084F093F02A
:200EA000A2F0B1F0C0F0CFF0DEF0EDF0FCF00BF01AF029F038F047F056F065F074F083F00A
:200EC00092F0A1F0B0F0BFF0CEF0DDF0ECF0FBF00AF019F028F037F046F055F064F073F0EA
:200EE00082F091F0A0F0AFF0BEF0CDF0DCF0EBF0FAF009F018F027F036F045F054F063F0CA
:200F000072F081F090F09FF0AEF0BDF0CCF0DBF0EAF0F9F008F017F026F035F044F053F0A9
:200F200062F071F080F08FF09EF0ADF0BCF0CBF0DAF0E9F0F8F007F016F025F034F043F089
:200F400052F061F070F07FF08EF09DF0ACF0BBF0CAF0D9F0E8F0F7F006F015F024F033F069
:200F600042F051F060F06FF07EF08DF09CF0ABF0BAF0C9F0D8F0E7F0F6F005F014F023F049
:200F800032F041F050F05FF06EF07DF08CF09BF0AAF0B9F0C8F0D7F0E6F0F5F004F013F029
:200FA00022F031F040F04FF05EF06DF07CF08BF09AF0A9F0B8F0C7F0D6F0E5F0F4F003F009
:200FC00012F021F030F03FF04EF05DF06CF07BF08AF099F0A8F0B7F0C6F0D5F0E4F0F3F0E9
:200FE00002F011F020F02FF03EF04DF05CF06BF07AF089F098F0A7F0B6F0C5F0D4F0E3F0C9
:20100000F2F001F010F01FF02EF03DF04CF05BF06AF079F088F097F0A6F0B5F0C4F0D3F0A8
:20102000E2F0F1F0FEF00FF01EF02DF03CF04BF05AF069F078F087F096F0A5F0B4F0C3F08A
:20104000D2F0E1F0F0F0FEF00EF01DF02CF03BF04AF059F068F077F086F095F0A4F0B3F069
:20106000C2F0D1F0E0F0EFF0FEF00DF01CF02BF03AF049F058F067F076F085F094F0A3F048
:20108000B2F0C1F0D0F0DFF0EEF0FDF00CF01BF02AF039F048F057F066F075F084F093F028
:2010A000A2F0B1F0C0F0CFF0DEF0EDF0FCF00BF01AF029F038F047F056F065F074F083F008
:2010C00092F0A1F0B0F0BFF0CEF0DDF0ECF0FBF00AF019F028F037F046F055F064F073F0E8
:2010E00082F091F0A0F0AFF0BEF0CDF0DCF0EBF0FAF009F018F027F036F045F054F063F0C8
:2011000072F081F090F09FF0AEF0BDF0CCF0DBF0EAF0F9F008F017F026F035F044F053F0A7
:2011200062F071F080F08FF09EF0ADF0BCF0CBF0DAF0E9F0F8F007F016F025F034F043F087
:2011400052F061F070F07FF08EF09DF0ACF0BBF0CAF0D9F0E8F0F7F006F015F024F033F067
:2011600042F051F060F06FF07EF08DF09CF0ABF0BAF0C9F0D8F0E7F0F6F005F014F023F047
:2011800032F041F050F05FF06EF07DF08CF09BF0AAF0B9F0C8F0D7F0E6F0F5F004F013F027
:2011A00022F031F040F04FF05EF06DF07CF08BF09AF0A9F0B8F0C7F0D6F0E5F0F4F003F007
:2011C00012F021F030F03FF04EF05DF06CF07BF08AF099F0A8F0B7F0C6F0D5F0E4F0F3F0E7
:2011E00002F011F020F02FF03EF04DF05CF06BF07AF089F098F0A7F0B6F0C5F0D4F0E3F0C7
:20120000F2F001F010F01FF02EF03DF04CF05BF06AF079F088F097F0A6F0B5F0C4F0D3F0A6
:20122000E2F0F1F0FEF00FF01EF02DF03CF04BF05AF069F078F087F096F0A5F0B4F0C3F088
:20124000D2F0E1F0F0F0FEF00EF01DF02CF03BF04AF059F068F077F086F095F0A4F0B3F067
:20126000C2F0D1F0E0F0EFF0FEF00DF01CF02BF03AF049F058F067F076F085F094F0A3F046
:20128000B2F0C1F0D0F0DFF0EEF0FDF00CF01BF02AF039F048F057F066F075F084F093F026
:2012A000A2F0B1F0C0F0CFF0DEF0EDF0FCF00BF01AF029F038F047F056F065F074F083F006
:2012C00092F0A1F0B0F0BFF0CEF0DDF0ECF0FBF00AF019F028F037F046F055F064F073F0E6
:2012E00082F091F0A0F0AFF0BEF0CDF0DCF0EBF0FAF009F018F027F036F045F054F063F0C6
:2013000072F081F090F09FF0AEF0BDF0CCF0DBF0EAF0F9F008F017F026F035F044F053F0A5
:2013200062F071F080F08FF09EF0ADF0BCF0CBF0DAF0E9F0F8F007F016F025F034F043F085
:2013400052F061F070F07FF08EF09DF0ACF0BBF0CAF0D9F0E8F0F7F006F015F024F033F065
:2013600042F051F060F06FF07EF08DF09CF0ABF0BAF0C9F0D8F0E7F0F6F005F014F023F045
:2013800032F041F050F05FF06EF07DF08CF09BF0AAF0B9F0C8F0D7F0E6F0F5F004F013F025
:2013A00022F031F040F04FF05EF06DF07CF08BF09AF0A9F0B8F0C7F0D6F0E5F0F4F003F005
:2013C00012F021F030F03FF04EF05DF06CF07BF08AF099F0A8F0B7F0C6F0D5F0E4F0F3F0E5
:2013E00002F011F020F02FF03EF04DF05CF06BF07AF089F098F0A7F0B6F0C5F0D4F0E3F0C5
:20140000F2F001F010F01FF02EF03DF04CF05BF06AF079F088F097F0A6F0B5F0C4F0D3F0A4
:20142000E2F0F1F0FEF00FF01EF02DF03CF04BF05AF069F078F087F096F0A5F0B4F0C3F086
:20144000D2F0E1F0F0F0FEF00EF01DF02CF03BF04AF059F068F077F086F095F0A4F0B3F065
:20146000C2F0D1F0E0F0EFF0FEF00DF01CF02BF03AF049F058F067F076F085F094F0A3F044
:20148000B2F0C1F0D0F0DFF0EEF0FDF00CF01BF02AF039F048F057F066F075F084F093F024
:2014A000A2F0B1F0C0F0CFF0DEF0EDF0FCF00BF01AF029F038F047F056F065F074F083F004
:2014C00092F0A1F0B0F0BFF0CEF0DDF0ECF0FBF00AF019F028F037F046F055F064F073F0E4
:2014E00082F091F0A0F0AFF0BEF0CDF0DCF0EBF0FAF009F018F027F036F045F054F063F0C4
:2015000072F081F090F09FF0AEF0BDF0CCF0DBF0EAF0F9F008F017F026F035F044F053F0A3
:2015200062F071F080F08FF09EF0ADF0BCF0CBF0DAF0E9F0F8F007F016F025F034F043F083
:2015400052F061F070F07FF08EF09DF0ACF0BBF0CAF0D9F0E8F0F7F006F015F024F033F063
:2015600042F051F060F06FF07EF08DF09CF0ABF0BAF0C9F0D8F0E7F0F6F005F014F023F043
:2015800032F041F050F05FF06EF07DF08CF09BF0AAF0B9F0C8F0D7F0E6F0F5F004F013F023
:2015A00022F031F040F04FF05EF06DF07CF08BF09AF0A9F0B8F0C7F0D6F0E5F0F4F003F003
:2015C00012F021F030F03FF04EF05DF06CF07BF08AF099F0A8F0B7F0C6F0D5F0E4F0F3F0E3
:2015E00002F011F020F02FF03EF04DF05CF06BF07AF089F098F0A7F0B6F0C5F0D4F0E3F0C3
:20160000F2F001F010F01FF02EF03DF04CF05BF06AF079F088F097F0A6F0B5F0C4F0D3F0A2
:20162000E2F0F1F0FEF00FF01EF02DF03CF04BF05AF069F078F087F096F0A5F0B4F0C3F084
:20164000D2F0E1F0F0F0FEF00EF01DF02CF03BF04AF059F068F077F086F095F0A4F0B3F063
:20166000C2F0D1F0E0F0EFF0FEF00DF01CF02BF03AF049F058F067F076F085F094F0A3F042
:20168000B2F0C1F0D0F0DFF0EEF0FDF00CF01BF02AF039F048F057F066F075F084F093F022
:2016A000A2F0B1F0C0F0CFF0DEF0EDF0FCF00BF01AF029F038F047F056F065F074F083F002
:2016C00092F0A1F0B0F0BFF0CEF0DDF0ECF0FBF00AF019F028F037F046F055F064F073F0E2
:2016E00082F091F0A0F0AFF0BEF0CDF0DCF0EBF0FAF009F018F027F036F045F054F063F0C2
:2017000072F081F090F09FF0AEF0BDF0CCF0DBF0EAF0F9F008F017F026F035F044F053F0A1
:2017200062F071F080F08FF09EF0ADF0BCF0CBF0DAF0E9F0F8F007F016F025F034F043F081
:2017400052F061F070F07FF08EF09DF0ACF0BBF0CAF0D9F0E8F0F7F006F015F024F033F061
:2017600042F051F060F06FF07EF08DF09CF0ABF0BAF0C9F0D8F0E7F0F6F005F014F023F041
:2017800032F041F050F05FF06EF07DF08CF09BF0AAF0B9F0C8F0D7F0E6F0F5F004F013F021
:2017A00022F031F040F04FF05EF06DF07CF08BF09AF0A9F0B8F0C7F0D6F0E5F0F4F003F001
:2017C00012F021F030F03FF04EF05DF06CF07BF08AF099F0A8F0B7F0C6F0D5F0E4F0F3F0E1
:2017E00002F011F020F02FF03EF04DF05CF06BF07AF089F098F0A7F0B6F0C5F0D4F0E3F0C1
:20180000F2F001F010F01FF02EF03DF04CF05BF06AF079F088F097F0A6F0B5F0C4F0D3F0A0
:20182000E2F0F1F0FEF00FF01EF02DF03CF04BF05AF069F078F087F096F0A5F0B4F0C3F082
:20184000D2F0E1F0F0F0FEF00EF01DF02CF03BF04AF059F068F077F086F095F0A4F0B3F061
:20186000C2F0D1F0E0F0EFF0FEF00DF01CF02BF03AF049F058F067F076F085F094F0A3F040
:20188000B2F0C1F0D0F0DFF0EEF0FDF00CF01BF02AF039F048F057F066F075F084F093F020
:2018A000A2F0B1F0C0F0CFF0DEF0EDF0FCF00BF01AF029F038F047F056F065F074F083F000
:2018C00092F0A1F0B0F0BFF0CEF0DDF0ECF0FBF00AF019F028F037F046F055F064F073F0E0
:2018E00082F091F0A0F0AFF0BEF0CDF0DCF0EBF0FAF009F018F027F036F045F054F063F0C0
:2019000072F081F090F09FF0AEF0BDF0CCF0DBF0EAF0F9F008F017F026F035F044F053F09F
:2019200062F071F080F08FF09EF0ADF0BCF0CBF0DAF0E9F0F8F007F016F025F034F043F07F
:2019400052F061F070F07FF08EF09DF0ACF0BBF0CAF0D9F0E8F0F7F006F015F024F033F05F
:2019600042F051F060F06FF07EF08DF09CF0ABF0BAF0C9F0D8F0E7F0F6F005F014F023F03F
:2019800032F041F050F05FF06EF07DF08CF09BF0AAF0B9F0C8F0D7F0E6F0F5F004F013F01F
:2019A00022F031F040F04FF05EF06DF07CF08BF09AF0A9F0B8F0C7F0D6F0E5F0F4F003F0FF
:2019C00012F021F030F03FF04EF05DF06CF07BF08AF099F0A8F0B7F0C6F0D5F0E4F0F3F0DF
:2019E00002F011F020F02FF03EF04DF05CF06BF07AF089F098F0A7F0B6F0C5F0D4F0E3F0BF
:201A0000F2F001F010F01FF02EF03DF04CF05BF06AF079F088F097F0A6F0B5F0C4F0D3F09E
:201A2000E2F0F1F0FEF00FF01EF02DF03CF04BF05AF069F078F087F096F0A5F0B4F0C3F080
:201A4000D2F0E1F0F0F0FEF00EF01DF02CF03BF04AF059F068F077F086F095F0A4F0B3F05F
:201A6000C2F0D1F0E0F0EFF0FEF00DF01CF02BF03AF049F058F067F076F085F094F0A3F03E
:201A8000B2F0C1F0D0F0DFF0EEF0FDF00CF01BF02AF039F048F057F066F075F084F093F01E
:201AA000A2F0B1F0C0F0CFF0DEF0EDF0FCF00BF01AF029F038F047F056F065F074F083F0FE
:201AC00092F0A1F0B0F0BFF0CEF0DDF0ECF0FBF00AF019F028F037F046F055F064F073F0DE
:201AE00082F091F0A0F0AFF0BEF0CDF0DCF0EBF0FAF009F018F027F036F045F054F063F0BE
:201B000072F081F090F09FF0AEF0BDF0CCF0DBF0EAF0F9F008F017F026F035F044F053F09D
:201B200062F071F080F08FF09EF0ADF0BCF0CBF0DAF0E9F0F8F007F016F025F034F043F07D
:201B400052F061F070F07FF08EF09DF0ACF0BBF0CAF0D9F0E8F0F7F006F015F024F033F05D
:201B600042F051F060F06FF07EF08DF09CF0ABF0BAF0C9F0D8F0E7F0F6F005F014F023F03D
:201B800032F041F050F05FF06EF07DF08CF09BF0AAF0B9F0C8F0D7F0E6F0F5F004F013F01D
:201BA00022F031F040F04FF05EF06DF07CF08BF09AF0A9F0B8F0C7F0D6F0E5F0F4F003F0FD
:201BC00012F021F030F03FF04EF05DF06CF07BF08AF099F0A8F0B7F0C6F0D5F0E4F0F3F0DD
:201BE00002F011F020F02FF03EF04DF05CF06BF07AF089F098F0A7F0B6F0C5F0D4F0E3F0BD
:201C0000F2F001F010F01FF02EF03DF04CF05BF06AF079F088F097F0A6F0B5F0C4F0D3F09C
:201C2000E2F0F1F0FEF00FF01EF02DF03CF04BF05AF069F078F087F096F0A5F0B4F0C3F07E
:201C4000D2F0E1F0F0F0FEF00EF01DF02CF03BF04AF059F068F077F086F095F0A4F0B3F05D
:201C6000C2F0D1F0E0F0EFF0FEF00DF01CF02BF03AF049F058F067F076F085F094F0A3F03C
:201C8000B2F0C1F0D0F0DFF0EEF0FDF00CF01BF02AF039F048F057F066F075F084F093F01C
:201CA000A2F0B1F0C0F0CFF0DEF0EDF0FCF00BF01AF029F038F047F056F065F074F083F0FC
:201CC00092F0A1F0B0F0BFF0CEF0DDF0ECF0FBF00AF019F028F037F046F055F064F073F0DC
:201CE00082F091F0A0F0AFF0BEF0CDF0DCF0EBF0FAF009F018F027F036F045F054F063F0BC
:201D000072F081F090F09FF0AEF0BDF0CCF0DBF0EAF0F9F008F017F026F035F044F053F09B
:201D200062F071F080F08FF09EF0ADF0BCF0CBF0DAF0E9F0F8F007F016F025F034F043F07B
:201D400052F061F070F07FF08EF09DF0ACF0BBF0CAF0D9F0E8F0F7F006F015F024F033F05B
:201D600042F051F060F06FF07EF08DF09CF0ABF0BAF0C9F0D8F0E7F0F6F005F014F023F03B
:201D800032F041F050F05FF06EF07DF08CF09BF0AAF0B9F0C8F0D7F0E6F0F5F004F013F01B
:201DA00022F031F040F04FF05EF06DF07CF08BF09AF0A9F0B8F0C7F0D6F0E5F0F4F003F0FB
:201DC00012F021F030F03FF04EF05DF06CF07BF08AF099F0A8F0B7F0C6F0D5F0E4F0F3F0DB
:201DE00002F011F020F02FF03EF04DF05CF06BF07AF089F098F0A7F0B6F0C5F0D4F0E3F0BB
:201E0000F2F001F010F01FF02EF03DF04CF05BF06AF079F088F097F0A6F0B5F0C4F0D3F09A
:201E2000E2F0F1F0FEF00FF01EF02DF03CF04BF05AF069F078F087F096F0A5F0B4F0C3F07C
:201E4000D2F0E1F0F0F0FEF00EF01DF02CF03BF04AF059F068F077F086F095F0A4F0B3F05B
:201E6000C2F0D1F0E0F0EFF0FEF00DF01CF02BF03AF049F058F067F076F085F094F0A3F03A
:201E8000B2F0C1F0D0F0DFF0EEF0FDF00CF01BF02AF039F048F057F066F075F084F093F01A
:201EA000A2F0B1F0C0F0CFF0DEF0EDF0FCF00BF01AF029F038F047F056F065F074F083F0FA
:201EC00092F0A1F0B0F0BFF0CEF0DDF0ECF0FBF00AF019F028F037F046F055F064F073F0DA
:201EE00082F091F0A0F0AFF0BEF0CDF0DCF0EBF0FAF009F018F027F036F045F054F063F0BA
:201F000072F081F090F09FF0AEF0BDF0CCF0DBF0EAF0F9F008F017F026F035F044F053F099
:201F200062F071F080F08FF09EF0ADF0BCF0CBF0DAF0E9F0F8F007F016F025F034F043F079
:201F400052F061F070F07FF08EF09DF0ACF0BBF0CAF0D9F0E8F0F7F006F015F024F033F059
:201F600042F051F060F06FF07EF08DF09CF0ABF0BAF0C9F0D8F0E7F0F6F005F014F023F039
:201F800032F041F050F05FF06EF07DF08CF09BF0AAF0B9F0C8F0D7F0E6F0F5F004F013F019
:201FA00022F031F040F04FF05EF06DF07CF08BF09AF0A9F0B8F0C7F0D6F0E5F0F4F003F0F9
:201FC00012F021F030F03FF04EF05DF06CF07BF08AF099F0A8F0B7F0C6F0D5F0E4F0F3F0D9
:201FE00002F011F020F02FF03EF04DF05CF06BF07AF089F098F0A7F0B6F0C5F0D4F0E3F0B9
:20200000F2F001F010F01FF02EF03DF04CF05BF06AF079F088F097F0A6F0B5F0C4F0D3F098
:20202000E2F0F1F0FEF00FF01EF02DF03CF04BF05AF069F078F087F096F0A5F0B4F0C3F07A
:20204000D2F0E1F0F0F0FEF00EF01DF02CF03BF04AF059F068F077F086F095F0A4F0B3F059
:20206000C2F0D1F0E0F0EFF0FEF00DF01CF02BF03AF049F058F067F076F085F094F0A3F038
:20208000B2F0C1F0D0F0DFF0EEF0FDF00CF01BF02AF039F048F057F066F075F084F093F018
:2020A000A2F0B1F0C0F0CFF0DEF0EDF0FCF00BF01AF029F038F047F056F065F074F083F0F8
:2020C00092F0A1F0B0F0BFF0CEF0DDF0ECF0FBF00AF019F028F037F046F055F064F073F0D8
:2020E00082F091F0A0F0AFF0BEF0CDF0DCF0EBF0FAF009F018F027F036F045F054F063F0B8
:2021000072F081F090F09FF0AEF0BDF0CCF0DBF0EAF0F9F008F017F026F035F044F053F097
:2021200062F071F080F08FF09EF0ADF0BCF0CBF0DAF0E9F0F8F007F016F025F034F043F077
:2021400052F061F070F07FF08EF09DF0ACF0BBF0CAF0D9F0E8F0F7F006F015F024F033F057
:2021600042F051F060F06FF07EF08DF09CF0ABF0BAF0C9F0D8F0E7F0F6F005F014F023F037
:2021800032F041F050F05FF06EF07DF08CF09BF0AAF0B9F0C8F0D7F0E6F0F5F004F013F017
:2021A00022F031F040F04FF05EF06DF07CF08BF09AF0A9F0B8F0C7F0D6F0E5F0F4F003F0F7
:2021C00012F021F030F03FF04EF05DF06CF07BF08AF099F0A8F0B7F0C6F0D5F0E4F0F3F0D7
:2021E00002F011F020F02FF03EF04DF05CF06BF07AF089F098F0A7F0B6F0C5F0D4F0E3F0B7
:20220000F2F001F010F01FF02EF03DF04CF05BF06AF079F088F097F0A6F0B5F0C4F0D3F096
:20222000E2F0F1F0FEF00FF01EF02DF03CF04BF05AF069F078F087F096F0A5F0B4F0C3F078
:20224000D2F0E1F0F0F0FEF00EF01DF02CF03BF04AF059F068F077F086F095F0A4F0B3F057
:20226000C2F0D1F0E0F0EFF0FEF00DF01CF02BF03AF049F058F067F076F085F094F0A3F036
:20228000B2F0C1F0D0F0DFF0EEF0FDF00CF01BF02AF039F048F057F066F075F084F093F016
:2022A000A2F0B1F0C0F0CFF0DEF0EDF0FCF00BF01AF029F038F047F056F065F074F083F0F6
:2022C00092F0A1F0B0F0BFF0CEF0DDF0ECF0FBF00AF019F028F037F046F055F064F073F0D6
:2022E00082F091F0A0F0AFF0BEF0CDF0DCF0EBF0FAF009F018F027F036F045F054F063F0B6
:2023000072F081F090F09FF0AEF0BDF0CCF0DBF0EAF0F9F008F017F026F035F044F053F095
:2023200062F071F080F08FF09EF0ADF0BCF0CBF0DAF0E9F0F8F007F016F025F034F043F075
:2023400052F061F070F07FF08EF09DF0ACF0BBF0CAF0D9F0E8F0F7F006F015F024F033F055
:2023600042F051F060F06FF07EF08DF09CF0ABF0BAF0C9F0D8F0E7F0F6F005F014F023F035
:2023800032F041F050F05FF06EF07DF08CF09BF0AAF0B9F0C8F0D7F0E6F0F5F004F013F015
:2023A00022F031F040F04FF05EF06DF07CF08BF09AF0A9F0B8F0C7F0D6F0E5F0F4F003F0F5
:2023C00012F021F030F03FF04EF05DF06CF07BF08AF099F0A8F0B7F0C6F0D5F0E4F0F3F0D5
:2023E00002F011F020F02FF03EF04DF05CF06BF07AF089F098F0A7F0B6F0C5F0D4F0E3F0B5
:20240000F2F001F010F01FF02EF03DF04CF05BF06AF079F088F097F0A6F0B5F0C4F0D3F094
:20242000E2F0F1F0FEF00FF01EF02DF03CF04BF05AF069F078F087F096F0A5F0B4F0C3F076
:20244000D2F0E1F0F0F0FEF00EF01DF02CF03BF04AF059F068F077F086F095F0A4F0B3F055
:20246000C2F0D1F0E0F0EFF0FEF00DF01CF02BF03AF049F058F067F076F085F094F0A3F034
:20248000B2F0C1F0D0F0DFF0EEF0FDF00CF01BF02AF039F048F057F066F075F084F093F014
:2024A000A2F0B1F0C0F0CFF0DEF0EDF0FCF00BF01AF029F038F047F056F065F074F083F0F4
:2024C00092F0A1F0B0F0BFF0CEF0DDF0ECF0FBF00AF019F028F037F046F055F064F073F0D4
:2024E00082F091F0A0F0AFF0BEF0CDF0DCF0EBF0FAF009F018F027F036F045F054F063F0B4
:2025000072F081F090F09FF0AEF0BDF0CCF0DBF0EAF0F9F008F017F026F035F044F053F093
:2025200062F071F080F08FF09EF0ADF0BCF0CBF0DAF0E9F0F8F007F016F025F034F043F073
:2025400052F061F070F07FF08EF09DF0ACF0BBF0CAF0D9F0E8F0F7F006F015F024F033F053
:2025600042F051F060F06FF07EF08DF09CF0ABF0BAF0C9F0D8F0E7F0F6F005F014F023F033
:2025800032F041F050F05FF06EF07DF08CF09BF0AAF0B9F0C8F0D7F0E6F0F5F004F013F013
:2025A00022F031F040F04FF05EF06DF07CF08BF09AF0A9F0B8F0C7F0D6F0E5F0F4F003F0F3
:2025C00012F021F030F03FF04EF05DF06CF07BF08AF099F0A8F0B7F0C6F0D5F0E4F0F3F0D3
:2025E00002F011F020F02FF03EF04DF05CF06BF07AF089F098F0A7F0B6F0C5F0D4F0E3F0B3
:20260000F2F001F010F01FF02EF03DF04CF05BF06AF079F088F097F0A6F0B5F0C4F0D3F092
:20262000E2F0F1F0FEF00FF01EF02DF03CF04BF05AF069F078F087F096F0A5F0B4F0C3F074
:20264000D2F0E1F0F0F0FEF00EF01DF02CF03BF04AF059F068F077F086F095F0A4F0B3F053
:20266000C2F0D1F0E0F0EFF0FEF00DF01CF02BF03AF049F058F067F076F085F094F0A3F032
:20268000B2F0C1F0D0F0DFF0EEF0FDF00CF01BF02AF039F048F057F066F075F084F093F012
:2026A000A2F0B1F0C0F0CFF0DEF0EDF0FCF00BF01AF029F038F047F056F065F074F083F0F2
:2026C00092F0A1F0B0F0BFF0CEF0DDF0ECF0FBF00AF019F028F037F046F055F064F073F0D2
:2026E00082F091F0A0F0AFF0BEF0CDF0DCF0EBF0FAF009F018F027F036F045F054F063F0B2
:2027000072F081F090F09FF0AEF0BDF0CCF0DBF0EAF0F9F008F017F026F035F044F053F091
:2027200062F071F080F08FF09EF0ADF0BCF0CBF0DAF0E9F0F8F007F016F025F034F043F071
:2027400052F061F070F07FF08EF09DF0ACF0BBF0CAF0D9F0E8F0F7F006F015F024F033F051
:2027600042F051F060F06FF07EF08DF09CF0ABF0BAF0C9F0D8F0E7F0F6F005F014F023F031
:2027800032F041F050F05FF06EF07DF08CF09BF0AAF0B9F0C8F0D7F0E6F0F5F004F013F011
:2027A00022F031F040F04FF05EF06DF07CF08BF09AF0A9F0B8F0C7F0D6F0E5F0F4F003F0F1
:2027C00012F021F030F03FF04EF05DF06CF07BF08AF099F0A8F0B7F0C6F0D5F0E4F0F3F0D1
:2027E00002F011F020F02FF03EF04DF05CF06BF07AF089F098F0A7F0B6F0C5F0D4F0E3F0B1
:20280000F2F001F010F01FF02EF03DF04CF05BF06AF079F088F097F0A6F0B5F0C4F0D3F090
:20282000E2F0F1F0FEF00FF01EF02DF03CF04BF05AF069F078F087F096F0A5F0B4F0C3F072
:20284000D2F0E1F0F0F0FEF00EF01DF02CF03BF04AF059F068F077F086F095F0A4F0B3F051
:20286000C2F0D1F0E0F0EFF0FEF00DF01CF02BF03AF049F058F067F076F085F094F0A3F030
:20288000B2F0C1F0D0F0DFF0EEF0FDF00CF01BF02AF039F048F057F066F075F084F093F010
:2028A000A2F0B1F0C0F0CFF0DEF0EDF0FCF00BF01AF029F038F047F056F065F074F083F0F0
:2028C00092F0A1F0B0F0BFF0CEF0DDF0ECF0FBF00AF019F028F037F046F055F064F073F0D0
:2028E00082F091F0A0F0AFF0BEF0CDF0DCF0EBF0FAF009F018F027F036F045F054F063F0B0
:2029000072F081F090F09FF0AEF0BDF0CCF0DBF0EAF0F9F008F017F026F035F044F053F08F
:2029200062F071F080F08FF09EF0ADF0BCF0CBF0DAF0E9F0F8F007F016F025F034F043F06F
:2029400052F061F070F07FF08EF09DF0ACF0BBF0CAF0D9F0E8F0F7F006F015F024F033F04F
:2029600042F051F060F06FF07EF08DF09CF0ABF0BAF0C9F0D8F0E7F0F6F005F014F023F02F
:2029800032F041F050F05FF06EF07DF08CF09BF0AAF0B9F0C8F0D7F0E6F0F5F004F013F00F
:2029A00022F031F040F04FF05EF06DF07CF08BF09AF0A9F0B8F0C7F0D6F0E5F0F4F003F0EF
:2029C00012F021F030F03FF04EF05DF06CF07BF08AF099F0A8F0B7F0C6F0D5F0E4F0F3F0CF
:2029E00002F011F020F02FF03EF04DF05CF06BF07AF089F098F0A7F0B6F0C5F0D4F0E3F0AF
:202A0000F2F001F010F01FF02EF03DF04CF05BF06AF079F088F097F0A6F0B5F0C4F0D3F08E
:202A2000E2F0F1F0FEF00FF01EF02DF03CF04BF05AF069F078F087F096F0A5F0B4F0C3F070
:202A4000D2F0E1F0F0F0FEF00EF01DF02CF03BF04AF059F068F077F086F095F0A4F0B3F04F
:202A6000C2F0D1F0E0F0EFF0FEF00DF01CF02BF03AF049F058F067F076F085F094F0A3F02E
:202A8000B2F0C1F0D0F0DFF0EEF0FDF00CF01BF02AF039F048F057F066F075F084F093F00E
:202AA000A2F0B1F0C0F0CFF0DEF0EDF0FCF00BF01AF029F038F047F056F065F074F083F0EE
:202AC00092F0A1F0B0F0BFF0CEF0DDF0ECF0FBF00AF019F028F037F046F055F064F073F0CE
:202AE00082F091F0A0F0AFF0BEF0CDF0DCF0EBF0FAF009F018F027F036F045F054F063F0AE
:202B000072F081F090F09FF0AEF0BDF0CCF0DBF0EAF0F9F008F017F026F035F044F053F08D
:202B200062F071F080F08FF09EF0ADF0BCF0CBF0DAF0E9F0F8F007F016F025F034F043F06D
:202B400052F061F070F07FF08EF09DF0ACF0BBF0CAF0D9F0E8F0F7F006F015F024F033F04D
:202B600042F051F060F06FF07EF08DF09CF0ABF0BAF0C9F0D8F0E7F0F6F005F014F023F02D
:202B800032F041F050F05FF06EF07DF08CF09BF0AAF0B9F0C8F0D7F0E6F0F5F004F013F00D
:202BA00022F031F040F04FF05EF06DF07CF08BF09AF0A9F0B8F0C7F0D6F0E5F0F4F003F0ED
:202BC00012F021F030F03FF04EF05DF06CF07BF08AF099F0A8F0B7F0C6F0D5F0E4F0F3F0CD
:202BE00002F011F020F02FF03EF04DF05CF06BF07AF089F098F0A7F0B6F0C5F0D4F0E3F0AD
:202C0000F2F001F010F01FF02EF03DF04CF05BF06AF079F088F097F0A6F0B5F0C4F0D3F08C
:202C2000E2F0F1F0FEF00FF01EF02DF03CF04BF05AF069F078F087F096F0A5F0B4F0C3F06E
:202C4000D2F0E1F0F0F0FEF00EF01DF02CF03BF04AF059F068F077F086F095F0A4F0B3F04D
:202C6000C2F0D1F0E0F0EFF0FEF00DF01CF02BF03AF049F058F067F076F085F094F0A3F02C
:202C8000B2F0C1F0D0F0DFF0EEF0FDF00CF01BF02AF039F048F057F066F075F084F093F00C
:202CA000A2F0B1F0C0F0CFF0DEF0EDF0FCF00BF01AF029F038F047F056F065F074F083F0EC
:202CC00092F0A1F0B0F0BFF0CEF0DDF0ECF0FBF00AF019F028F037F046F055F064F073F0CC
:202CE00082F091F0A0F0AFF0BEF0CDF0DCF0EBF0FAF009F018F027F036F045F054F063F0AC
:202D000072F081F090F09FF0AEF0BDF0CCF0DBF0EAF0F9F008F017F026F035F044F053F08B
:202D200062F071F080F08FF09EF0ADF0BCF0CBF0DAF0E9F0F8F007F016F025F034F043F06B
:202D400052F061F070F07FF08EF09DF0ACF0BBF0CAF0D9F0E8F0F7F006F015F024F033F04B
:202D600042F051F060F06FF07EF08DF09CF0ABF0BAF0C9F0D8F0E7F0F6F005F014F023F02B
:202D800032F041F050F05FF06EF07DF08CF09BF0AAF0B9F0C8F0D7F0E6F0F5F004F013F00B
:202DA00022F031F040F04FF05EF06DF07CF08BF09AF0A9F0B8F0C7F0D6F0E5F0F4F003F0EB
:202DC00012F021F030F03FF04EF05DF06CF07BF08AF099F0A8F0B7F0C6F0D5F0E4F0F3F0CB
:202DE00002F011F020F02FF03EF04DF05CF06BF07AF089F098F0A7F0B6F0C5F0D4F0E3F0AB
:202E0000F2F001F010F01FF02EF03DF04CF05BF06AF079F088F097F0A6F0B5F0C4F0D3F08A
:202E2000E2F0F1F0FEF00FF01EF02DF03CF04BF05AF069F078F087F096F0A5F0B4F0C3F06C
:202E4000D2F0E1F0F0F0FEF00EF01DF02CF03BF04AF059F068F077F086F095F0A4F0B3F04B
:202E6000C2F0D1F0E0F0EFF0FEF00DF01CF02BF03AF049F058F067F076F085F094F0A3F02A
:202E8000B2F0C1F0D0F0DFF0EEF0FDF00CF01BF02AF039F048F057F066F075F084F093F00A
:202EA000A2F0B1F0C0F0CFF0DEF0EDF0FCF00BF01AF029F038F047F056F065F074F083F0EA
:202EC00092F0A1F0B0F0BFF0CEF0DDF0ECF0FBF00AF019F028F037F046F055F064F073F0CA
:202EE00082F091F0A0F0AFF0BEF0CDF0DCF0EBF0FAF009F018F027F036F045F054F063F0AA
:202F000072F081F090F09FF0AEF0BDF0CCF0DBF0EAF0F9F008F017F026F035F044F053F089
:202F200062F071F080F08FF09EF0ADF0BCF0CBF0DAF0E9F0F8F007F016F025F034F043F069
:202F400052F061F070F07FF08EF09DF0ACF0BBF0CAF0D9F0E8F0F7F006F015F024F033F049
:202F600042F051F060F06FF07EF08DF09CF0ABF0BAF0C9F0D8F0E7F0F6F005F014F023F029
:202F800032F041F050F05FF06EF07DF08CF09BF0AAF0B9F0C8F0D7F0E6F0F5F004F013F009
:202FA00022F031F040F04FF05EF06DF07CF08BF09AF0A9F0B8F0C7F0D6F0E5F0F4F003F0E9
:202FC00012F021F030F03FF04EF05DF06CF07BF08AF099F0A8F0B7F0C6F0D5F0E4F0F3F0C9
:202FE00002F011F020F02FF03EF04DF05CF06BF07AF089F098F0A7F0B6F0C5F0D4F0E3F0A9
:20300000F2F001F010F01FF02EF03DF04CF05BF06AF079F088F097F0A6F0B5F0C4F0D3F088
:20302000E2F0F1F0FEF00FF01EF02DF03CF04BF05AF069F078F087F096F0A5F0B4F0C3F06A
:20304000D2F0E1F0F0F0FEF00EF01DF02CF03BF04AF059F068F077F086F095F0A4F0B3F049
:20306000C2F0D1F0E0F0EFF0FEF00DF01CF02BF03AF049F058F067F076F085F094F0A3F028
:20308000B2F0C1F0D0F0DFF0EEF0FDF00CF01BF02AF039F048F057F066F075F084F093F008
:2030A000A2F0B1F0C0F0CFF0DEF0EDF0FCF00BF01AF029F038F047F056F065F074F083F0E8
:2030C00092F0A1F0B0F0BFF0CEF0DDF0ECF0FBF00AF019F028F037F046F055F064F073F0C8
:2030E00082F091F0A0F0AFF0BEF0CDF0DCF0EBF0FAF009F018F027F036F045F054F063F0A8
:2031000072F081F090F09FF0AEF0BDF0CCF0DBF0EAF0F9F008F017F026F035F044F053F087
:2031200062F071F080F08FF09EF0ADF0BCF0CBF0DAF0E9F0F8F007F016F025F034F043F067
:2031400052F061F070F07FF08EF09DF0ACF0BBF0CAF0D9F0E8F0F7F006F015F024F033F047
:2031600042F051F060F06FF07EF08DF09CF0ABF0BAF0C9F0D8F0E7F0F6F005F014F023F027
:2031800032F041F050F05FF06EF07DF08CF09BF0AAF0B9F0C8F0D7F0E6F0F5F004F013F007
:2031A00022F031F040F04FF05EF06DF07CF08BF09AF0A9F0B8F0C7F0D6F0E5F0F4F003F0E7
:2031C00012F021F030F03FF04EF05DF06CF07BF08AF099F0A8F0B7F0C6F0D5F0E4F0F3F0C7
:2031E00002F011F020F02FF03EF04DF05CF06BF07AF089F098F0A7F0B6F0C5F0D4F0E3F0A7
:20320000F2F001F010F01FF02EF03DF04CF05BF06AF079F088F097F0A6F0B5F0C4F0D3F086
:20322000E2F0F1F0FEF00FF01EF02DF03CF04BF05AF069F078F087F096F0A5F0B4F0C3F068
:20324000D2F0E1F0F0F0FEF00EF01DF02CF03BF04AF059F068F077F086F095F0A4F0B3F047
:20326000C2F0D1F0E0F0EFF0FEF00DF01CF02BF03AF049F058F067F076F085F094F0A3F026
:20328000B2F0C1F0D0F0DFF0EEF0FDF00CF01BF02AF039F048F057F066F075F084F093F006
:2032A000A2F0B1F0C0F0CFF0DEF0EDF0FCF00BF01AF029F038F047F056F065F074F083F0E6
:2032C00092F0A1F0B0F0BFF0CEF0DDF0ECF0FBF00AF019F028F037F046F055F064F073F0C6
:2032E00082F091F0A0F0AFF0BEF0CDF0DCF0EBF0FAF009F018F027F036F045F054F063F0A6
:2033000072F081F090F09FF0AEF0BDF0CCF0DBF0EAF0F9F008F017F026F035F044F053F085
:2033200062F071F080F08FF09EF0ADF0BCF0CBF0DAF0E9F0F8F007F016F025F034F043F065
:2033400052F061F070F07FF08EF09DF0ACF0BBF0CAF0D9F0E8F0F7F006F015F024F033F045
:2033600042F051F060F06FF07EF08DF09CF0ABF0BAF0C9F0D8F0E7F0F6F005F014F023F025
:2033800032F041F050F05FF06EF07DF08CF09BF0AAF0B9F0C8F0D7F0E6F0F5F004F013F005
:2033A00022F031F040F04FF05EF06DF07CF08BF09AF0A9F0B8F0C7F0D6F0E5F0F4F003F0E5
:2033C00012F021F030F03FF04EF05DF06CF07BF08AF099F0A8F0B7F0C6F0D5F0E4F0F3F0C5
:2033E00002F011F020F02FF03EF04DF05CF06BF07AF089F098F0A7F0B6F0C5F0D4F0E3F0A5
:20340000F2F001F010F01FF02EF03DF04CF05BF06AF079F088F097F0A6F0B5F0C4F0D3F084
:20342000E2F0F1F0FEF00FF01EF02DF03CF04BF05AF069F078F087F096F0A5F0B4F0C3F066
:20344000D2F0E1F0F0F0FEF00EF01DF02CF03BF04AF059F068F077F086F095F0A4F0B3F045
:20346000C2F0D1F0E0F0EFF0FEF00DF01CF02BF03AF049F058F067F076F085F094F0A3F024
:20348000B2F0C1F0D0F0DFF0EEF0FDF00CF01BF02AF039F048F057F066F075F084F093F004
:2034A000A2F0B1F0C0F0CFF0DEF0EDF0FCF00BF01AF029F038F047F056F065F074F083F0E4
:2034C00092F0A1F0B0F0BFF0CEF0DDF0ECF0FBF00AF019F028F037F046F055F064F073F0C4
:2034E00082F091F0A0F0AFF0BEF0CDF0DCF0EBF0FAF009F018F027F036F045F054F063F0A4
:2035000072F081F090F09FF0AEF0BDF0CCF0DBF0EAF0F9F008F017F026F035F044F053F083
:2035200062F071F080F08FF09EF0ADF0BCF0CBF0DAF0E9F0F8F007F016F025F034F043F063
:2035400052F061F070F07FF08EF09DF0ACF0BBF0CAF0D9F0E8F0F7F006F015F024F033F043
:2035600042F051F060F06FF07EF08DF09CF0ABF0BAF0C9F0D8F0E7F0F6F005F014F023F023
:2035800032F041F050F05FF06EF07DF08CF09BF0AAF0B9F0C8F0D7F0E6F0F5F004F013F003
:2035A00022F031F040F04FF05EF06DF07CF08BF09AF0A9F0B8F0C7F0D6F0E5F0F4F003F0E3
:2035C00012F021F030F03FF04EF05DF06CF07BF08AF099F0A8F0B7F0C6F0D5F0E4F0F3F0C3
:2035E00002F011F020F02FF03EF04DF05CF06BF07AF089F098F0A7F0B6F0C5F0D4F0E3F0A3
:20360000F2F001F010F01FF02EF03DF04CF05BF06AF079F088F097F0A6F0B5F0C4F0D3F082
:20362000E2F0F1F0FEF00FF01EF02DF03CF04BF05AF069F078F087F096F0A5F0B4F0C3F064
:20364000D2F0E1F0F0F0FEF00EF01DF02CF03BF04AF059F068F077F086F095F0A4F0B3F043
:20366000C2F0D1F0E0F0EFF0FEF00DF01CF02BF03AF049F058F067F076F085F094F0A3F022
:20368000B2F0C1F0D0F0DFF0EEF0FDF00CF01BF02AF039F048F057F066F075F084F093F002
:2036A000A2F0B1F0C0F0CFF0DEF0EDF0FCF00BF01AF029F038F047F056F065F074F083F0E2
:2036C00092F0A1F0B0F0BFF0CEF0DDF0ECF0FBF00AF019F028F037F046F055F064F073F0C2
:2036E00082F091F0A0F0AFF0BEF0CDF0DCF0EBF0FAF009F018F027F036F045F054F063F0A2
:2037000072F081F090F09FF0AEF0BDF0CCF0DBF0EAF0F9F008F017F026F035F044F053F081
:2037200062F071F080F08FF09EF0ADF0BCF0CBF0DAF0E9F0F8F007F016F025F034F043F061
:2037400052F061F070F07FF08EF09DF0ACF0BBF0CAF0D9F0E8F0F7F006F015F024F033F041
:2037600042F051F060F06FF07EF08DF09CF0ABF0BAF0C9F0D8F0E7F0F6F005F014F023F021
:2037800032F041F050F05FF06EF07DF08CF09BF0AAF0B9F0C8F0D7F0E6F0F5F004F013F001
:2037A00022F031F040F04FF05EF06DF07CF08BF09AF0A9F0B8F0C7F0D6F0E5F0F4F003F0E1
:2037C00012F021F030F03FF04EF05DF06CF07BF08AF099F0A8F0B7F0C6F0D5F0E4F0F3F0C1
:2037E00002F011F020F02FF03EF04DF05CF06BF07AF089F098F0A7F0B6F0C5F0D4F0E3F0A1
:20380000F2F001F010F01FF02EF03DF04CF05BF06AF079F088F097F0A6F0B5F0C4F0D3F080
:20382000E2F0F1F0FEF00FF01EF02DF03CF04BF05AF069F078F087F096F0A5F0B4F0C3F062
:20384000D2F0E1F0F0F0FEF00EF01DF02CF03BF04AF059F068F077F086F095F0A4F0B3F041
:20386000C2F0D1F0E0F0EFF0FEF00DF01CF02BF03AF049F058F067F076F085F094F0A3F020
:20388000B2F0C1F0D0F0DFF0EEF0FDF00CF01BF02AF039F048F057F066F075F084F093F000
:2038A000A2F0B1F0C0F0CFF0DEF0EDF0FCF00BF01AF029F038F047F056F065F074F083F0E0
:2038C00092F0A1F0B0F0BFF0CEF0DDF0ECF0FBF00AF019F028F037F046F055F064F073F0C0
:2038E00082F091F0A0F0AFF0BEF0CDF0DCF0EBF0FAF009F018F027F036F045F054F063F0A0
:2039000072F081F090F09FF0AEF0BDF0CCF0DBF0EAF0F9F008F017F026F035F044F053F07F
:2039200062F071F080F08FF09EF0ADF0BCF0CBF0DAF0E9F0F8F007F016F025F034F043F05F
:2039400052F061F070F07FF08EF09DF0ACF0BBF0CAF0D9F0E8F0F7F006F015F024F033F03F
:2039600042F051F060F06FF07EF08DF09CF0ABF0BAF0C9F0D8F0E7F0F6F005F014F023F01F
:2039800032F041F050F05FF06EF07DF08CF09BF0AAF0B9F0C8F0D7F0E6F0F5F004F013F0FF
:2039A00022F031F040F04FF05EF06DF07CF08BF09AF0A9F0B8F0C7F0D6F0E5F0F4F003F0DF
:2039C00012F021F030F03FF04EF05DF06CF07BF08AF099F0A8F0B7F0C6F0D5F0E4F0F3F0BF
:2039E00002F011F020F02FF03EF04DF05CF06BF07AF089F098F0A7F0B6F0C5F0D4F0E3F09F
:203A0000F2F001F010F01FF02EF03DF04CF05BF06AF079F088F097F0A6F0B5F0C4F0D3F07E
:203A2000E2F0F1F0FEF00FF01EF02DF03CF04BF05AF069F078F087F096F0A5F0B4F0C3F060
:203A4000D2F0E1F0F0F0FEF00EF01DF02CF03BF04AF059F068F077F086F095F0A4F0B3F03F
:203A6000C2F0D1F0E0F0EFF0FEF00DF01CF02BF03AF049F058F067F076F085F094F0A3F01E
:203A8000B2F0C1F0D0F0DFF0EEF0FDF00CF01BF02AF039F048F057F066F075F084F093F0FE
:203AA000A2F0B1F0C0F0CFF0DEF0EDF0FCF00BF01AF029F038F047F056F065F074F083F0DE
:203AC00092F0A1F0B0F0BFF0CEF0DDF0ECF0FBF00AF019F028F037F046F055F064F073F0BE
:203AE00082F091F0A0F0AFF0BEF0CDF0DCF0EBF0FAF009F018F027F036F045F054F063F09E
:203B000072F081F090F09FF0AEF0BDF0CCF0DBF0EAF0F9F008F017F026F035F044F053F07D
:203B200062F071F080F08FF09EF0ADF0BCF0CBF0DAF0E9F0F8F007F016F025F034F043F05D
:203B400052F061F070F07FF08EF09DF0ACF0BBF0CAF0D9F0E8F0F7F006F015F024F033F03D
:203B600042F051F060F06FF07EF08DF09CF0ABF0BAF0C9F0D8F0E7F0F6F005F014F023F01D
:203B800032F041F050F05FF06EF07DF08CF09BF0AAF0B9F0C8F0D7F0E6F0F5F004F013F0FD
:203BA00022F031F040F04FF05EF06DF07CF08BF09AF0A9F0B8F0C7F0D6F0E5F0F4F003F0DD
:203BC00012F021F030F03FF04EF05DF06CF07BF08AF099F0A8F0B7F0C6F0D5F0E4F0F3F0BD
:203BE00002F011F020F02FF03EF04DF05CF06BF07AF089F098F0A7F0B6F0C5F0D4F0E3F09D
:203C0000F2F001F010F01FF02EF03DF04CF05BF06AF079F088F097F0A6F0B5F0C4F0D3F07C
:203C2000E2F0F1F0FEF00FF01EF02DF03CF04BF05AF069F078F087F096F0A5F0B4F0C3F05E
:203C4000D2F0E1F0F0F0FEF00EF01DF02CF03BF04AF059F068F077F086F095F0A4F0B3F03D
:203C6000C2F0D1F0E0F0EFF0FEF00DF01CF02BF03AF049F058F067F076F085F094F0A3F01C
:203C8000B2F0C1F0D0F0DFF0EEF0FDF00CF01BF02AF039F048F057F066F075F084F093F0FC
:203CA000A2F0B1F0C0F0CFF0DEF0EDF0FCF00BF01AF029F038F047F056F065F074F083F0DC
:203CC00092F0A1F0B0F0BFF0CEF0DDF0ECF0FBF00AF019F028F037F046F055F064F073F0BC
:203CE00082F091F0A0F0AFF0BEF0CDF0DCF0EBF0FAF009F018F027F036F045F054F063F09C
:203D000072F081F090F09FF0AEF0BDF0CCF0DBF0EAF0F9F008F017F026F035F044F053F07B
:203D200062F071F080F08FF09EF0ADF0BCF0CBF0DAF0E9F0F8F007F016F025F034F043F05B
:203D400052F061F070F07FF08EF09DF0ACF0BBF0CAF0D9F0E8F0F7F006F015F024F033F03B
:203D600042F051F060F06FF07EF08DF09CF0ABF0BAF0C9F0D8F0E7F0F6F005F014F023F01B
:203D800032F041F050F05FF06EF07DF08CF09BF0AAF0B9F0C8F0D7F0E6F0F5F004F013F0FB
:203DA00022F031F040F04FF05EF06DF07CF08BF09AF0A9F0B8F0C7F0D6F0E5F0F4F003F0DB
:203DC00012F021F030F03FF04EF05DF06CF07BF08AF099F0A8F0B7F0C6F0D5F0E4F0F3F0BB
:203DE00002F011F020F02FF03EF04DF05CF06BF07AF089F098F0A7F0B6F0C5F0D4F0E3F09B
:203E0000F2F001F010F01FF02EF03DF04CF05BF06AF079F088F097F0A6F0B5F0C4F0D3F07A
:203E2000E2F0F1F0FEF00FF01EF02DF03CF04BF05AF069F078F087F096F0A5F0B4F0C3F05C
:203E4000D2F0E1F0F0F0FEF00EF01DF02CF03BF04AF059F068F077F086F095F0A4F0B3F03B
:203E6000C2F0D1F0E0F0EFF0FEF00DF01CF02BF03AF049F058F067F076F085F094F0A3F01A
:203E8000B2F0C1F0D0F0DFF0EEF0FDF00CF01BF02AF039F048F057F066F075F084F093F0FA
:203EA000A2F0B1F0C0F0CFF0DEF0EDF0FCF00BF01AF029F038F047F056F065F074F083F0DA
:203EC00092F0A1F0B0F0BFF0CEF0DDF0ECF0FBF00AF019F028F037F046F055F064F073F0BA
:203EE00082F091F0A0F0AFF0BEF0CDF0DCF0EBF0FAF009F018F027F036F045F054F063F09A
:203F000072F081F090F09FF0AEF0BDF0CCF0DBF0EAF0F9F008F017F026F035F044F053F079
:203F200062F071F080F08FF09EF0ADF0BCF0CBF0DAF0E9F0F8F007F016F025F034F043F059
:203F400052F061F070F07FF08EF09DF0ACF0BBF0CAF0D9F0E8F0F7F006F015F024F033F039
:203F600042F051F060F06FF07EF08DF09CF0ABF0BAF0C9F0D8F0E7F0F6F005F014F023F019
:203F800032F041F050F05FF06EF07DF08CF09BF0AAF0B9F0C8F0D7F0E6F0F5F004F013F0F9
:203FA00022F031F040F04FF05EF06DF07CF08BF09AF0A9F0B8F0C7F0D6F0E5F0F4F003F0D9
:203FC00012F021F030F03FF04EF05DF06CF07BF08AF099F0A8F0B7F0C6F0D5F0E4F0F3F0B9
:203FE00002F011F020F02FF03EF04DF05CF06BF07AF089F098F0A7F0B6F0C5F0D4F0E3F099
:20400000F2F001F010F01FF02EF03DF04CF05BF06AF079F088F097F0A6F0B5F0C4F0D3F078
:20402000E2F0F1F0FEF00FF01EF02DF03CF04BF05AF069F078F087F096F0A5F0B4F0C3F05A
:20404000D2F0E1F0F0F0FEF00EF01DF02CF03BF04AF059F068F077F086F095F0A4F0B3F039
:20406000C2F0D1F0E0F0EFF0FEF00DF01CF02BF03AF049F058F067F076F085F094F0A3F018
:20408000B2F0C1F0D0F0DFF0EEF0FDF00CF01BF02AF039F048F057F066F075F084F093F0F8
:2040A000A2F0B1F0C0F0CFF0DEF0EDF0FCF00BF01AF029F038F047F056F065F074F083F0D8
:2040C00092F0A1F0B0F0BFF0CEF0DDF0ECF0FBF00AF019F028F037F046F055F064F073F0B8
:2040E00082F091F0A0F0AFF0BEF0CDF0DCF0EBF0FAF009F018F027F036F045F054F063F098
:2041000072F081F090F09FF0AEF0BDF0CCF0DBF0EAF0F9F008F017F026F035F044F053F077
:2041200062F071F080F08FF09EF0ADF0BCF0CBF0DAF0E9F0F8F007F016F025F034F043F057
:2041400052F061F070F07FF08EF09DF0ACF0BBF0CAF0D9F0E8F0F7F006F015F024F033F037
:2041600042F051F060F06FF07EF08DF09CF0ABF0BAF0C9F0D8F0E7F0F6F005F014F023F017
:2041800032F041F050F05FF06EF07DF08CF09BF0AAF0B9F0C8F0D7F0E6F0F5F004F013F0F7
:2041A00022F031F040F04FF05EF06DF07CF08BF09AF0A9F0B8F0C7F0D6F0E5F0F4F003F0D7
:2041C00012F021F030F03FF04EF05DF06CF07BF08AF099F0A8F0B7F0C6F0D5F0E4F0F3F0B7
:2041E00002F011F020F02FF03EF04DF05CF06BF07AF089F098F0A7F0B6F0C5F0D4F0E3F097
:20420000F2F001F010F01FF02EF03DF04CF05BF06AF079F088F097F0A6F0B5F0C4F0D3F076
:20422000E2F0F1F0FEF00FF01EF02DF03CF04BF05AF069F078F087F096F0A5F0B4F0C3F058
:20424000D2F0E1F0F0F0FEF00EF01DF02CF03BF04AF059F068F077F086F095F0A4F0B3F037
:20426000C2F0D1F0E0F0EFF0FEF00DF01CF02BF03AF049F058F067F076F085F094F0A3F016
:20428000B2F0C1F0D0F0DFF0EEF0FDF00CF01BF02AF039F048F057F066F075F084F093F0F6
:2042A000A2F0B1F0C0F0CFF0DEF0EDF0FCF00BF01AF029F038F047F056F065F074F083F0D6
:2042C00092F0A1F0B0F0BFF0CEF0DDF0ECF0FBF00AF019F028F037F046F055F064F073F0B6
:2042E00082F091F0A0F0AFF0BEF0CDF0DCF0EBF0FAF009F018F027F036F045F054F063F096
:2043000072F081F090F09FF0AEF0BDF0CCF0DBF0EAF0F9F008F017F026F035F044F053F075
:2043200062F071F080F08FF09EF0ADF0BCF0CBF0DAF0E9F0F8F007F016F025F034F043F055
:2043400052F061F070F07FF08EF09DF0ACF0BBF0CAF0D9F0E8F0F7F006F015F024F033F035
:2043600042F051F060F06FF07EF08DF09CF0ABF0BAF0C9F0D8F0E7F0F6F005F014F023F015
:2043800032F041F050F05FF06EF07DF08CF09BF0AAF0B9F0C8F0D7F0E6F0F5F004F013F0F5
:2043A00022F031F040F04FF05EF06DF07CF08BF09AF0A9F0B8F0C7F0D6F0E5F0F4F003F0D5
:2043C00012F021F030F03FF04EF05DF06CF07BF08AF099F0A8F0B7F0C6F0D5F0E4F0F3F0B5
:2043E00002F011F020F02FF03EF04DF05CF06BF07AF089F098F0A7F0B6F0C5F0D4F0E3F095
:20440000F2F001F010F01FF02EF03DF04CF05BF06AF079F088F097F0A6F0B5F0C4F0D3F074
:20442000E2F0F1F0FEF00FF01EF02DF03CF04BF05AF069F078F087F096F0A5F0B4F0C3F056
:20444000D2F0E1F0F0F0FEF00EF01DF02CF03BF04AF059F068F077F086F095F0A4F0B3F035
:20446000C2F0D1F0E0F0EFF0FEF00DF01CF02BF03AF049F058F067F076F085F094F0A3F014
:20448000B2F0C1F0D0F0DFF0EEF0FDF00CF01BF02AF039F048F057F066F075F084F093F0F4
:2044A000A2F0B1F0C0F0CFF0DEF0EDF0FCF00BF01AF029F038F047F056F065F074F083F0D4
:2044C00092F0A1F0B0F0BFF0CEF0DDF0ECF0FBF00AF019F028F037F046F055F064F073F0B4
:2044E00082F091F0A0F0AFF0BEF0CDF0DCF0EBF0FAF009F018F027F036F045F054F063F094
:2045000072F081F090F09FF0AEF0BDF0CCF0DBF0EAF0F9F008F017F026F035F044F053F073
:2045200062F071F080F08FF09EF0ADF0BCF0CBF0DAF0E9F0F8F007F016F025F034F043F053
:2045400052F061F070F07FF08EF09DF0ACF0BBF0CAF0D9F0E8F0F7F006F015F024F033F033
:2045600042F051F060F06FF07EF08DF09CF0ABF0BAF0C9F0D8F0E7F0F6F005F014F023F013
:2045800032F041F050F05FF06EF07DF08CF09BF0AAF0B9F0C8F0D7F0E6F0F5F004F013F0F3
:2045A00022F031F040F04FF05EF06DF07CF08BF09AF0A9F0B8F0C7F0D6F0E5F0F4F003F0D3
:2045C00012F021F030F03FF04EF05DF06CF07BF08AF099F0A8F0B7F0C6F0D5F0E4F0F3F0B3
:2045E00002F011F020F02FF03EF04DF05CF06BF07AF089F098F0A7F0B6F0C5F0D4F0E3F093
:20460000F2F001F010F01FF02EF03DF04CF05BF06AF079F088F097F0A6F0B5F0C4F0D3F072
:20462000E2F0F1F0FEF00FF01EF02DF03CF04BF05AF069F078F087F096F0A5F0B4F0C3F054
:20464000D2F0E1F0F0F0FEF00EF01DF02CF03BF04AF059F068F077F086F095F0A4F0B3F033
:20466000C2F0D1F0E0F0EFF0FEF00DF01CF02BF03AF049F058F067F076F085F094F0A3F012
:20468000B2F0C1F0D0F0DFF0EEF0FDF00CF01BF02AF039F048F057F066F075F084F093F0F2
:2046A000A2F0B1F0C0F0CFF0DEF0EDF0FCF00BF01AF029F038F047F056F065F074F083F0D2
:2046C00092F0A1F0B0F0BFF0CEF0DDF0ECF0FBF00AF019F028F037F046F055F064F073F0B2
:2046E00082F091F0A0F0AFF0BEF0CDF0DCF0EBF0FAF009F018F027F036F045F054F063F092
:2047000072F081F090F09FF0AEF0BDF0CCF0DBF0EAF0F9F008F017F026F035F044F053F071
:2047200062F071F080F08FF09EF0ADF0BCF0CBF0DAF0E9F0F8F007F016F025F034F043F051
:2047400052F061F070F07FF08EF09DF0ACF0BBF0CAF0D9F0E8F0F7F006F015F024F033F031
:2047600042F051F060F06FF07EF08DF09CF0ABF0BAF0C9F0D8F0E7F0F6F005F014F023F011
:2047800032F041F050F05FF06EF07DF08CF09BF0AAF0B9F0C8F0D7F0E6F0F5F004F013F0F1
:2047A00022F031F040F04FF05EF06DF07CF08BF09AF0A9F0B8F0C7F0D6F0E5F0F4F003F0D1
:2047C00012F021F030F03FF04EF05DF06CF07BF08AF099F0A8F0B7F0C6F0D5F0E4F0F3F0B1
:2047E00002F011F020F02FF03EF04DF05CF06BF07AF089F098F0A7F0B6F0C5F0D4F0E3F091
:20480000F2F001F010F01FF02EF03DF04CF05BF06AF079F088F097F0A6F0B5F0C4F0D3F070
:20482000E2F0F1F0FEF00FF01EF02DF03CF04BF05AF069F078F087F096F0A5F0B4F0C3F052
:20484000D2F0E1F0F0F0FEF00EF01DF02CF03BF04AF059F068F077F086F095F0A4F0B3F031
:20486000C2F0D1F0E0F0EFF0FEF00DF01CF02BF03AF049F058F067F076F085F094F0A3F010
:20488000B2F0C1F0D0F0DFF0EEF0FDF00CF01BF02AF039F048F057F066F075F084F093F0F0
:2048A000A2F0B1F0C0F0CFF0DEF0EDF0FCF00BF01AF029F038F047F056F065F074F083F0D0
:2048C00092F0A1F0B0F0BFF0CEF0DDF0ECF0FBF00AF019F028F037F046F055F064F073F0B0
:2048E00082F091F0A0F0AFF0BEF0CDF0DCF0EBF0FAF009F018F027F036F045F054F063F090
:2049000072F081F090F09FF0AEF0BDF0CCF0DBF0EAF0F9F008F017F026F035F044F053F06F
:2049200062F071F080F08FF09EF0ADF0BCF0CBF0DAF0E9F0F8F007F016F025F034F043F04F
:2049400052F061F070F07FF08EF09DF0ACF0BBF0CAF0D9F0E8F0F7F006F015F024F033F02F
:2049600042F051F060F06FF07EF08DF09CF0ABF0BAF0C9F0D8F0E7F0F6F005F014F023F00F
:2049800032F041F050F05FF06EF07DF08CF09BF0AAF0B9F0C8F0D7F0E6F0F5F004F013F0EF
:2049A00022F031F040F04FF05EF06DF07CF08BF09AF0A9F0B8F0C7F0D6F0E5F0F4F003F0CF
:2049C00012F021F030F03FF04EF05DF06CF07BF08AF099F0A8F0B7F0C6F0D5F0E4F0F3F0AF
:2049E00002F011F020F02FF03EF04DF05CF06BF07AF089F098F0A7F0B6F0C5F0D4F0E3F08F
:204A0000F2F001F010F01FF02EF03DF04CF05BF06AF079F088F097F0A6F0B5F0C4F0D3F06E
:204A2000E2F0F1F0FEF00FF01EF02DF03CF04BF05AF069F078F087F096F0A5F0B4F0C3F050
:204A4000D2F0E1F0F0F0FEF00EF01DF02CF03BF04AF059F068F077F086F095F0A4F0B3F02F
:204A6000C2F0D1F0E0F0EFF0FEF00DF01CF02BF03AF049F058F067F076F085F094F0A3F00E
:204A8000B2F0C1F0D0F0DFF0EEF0FDF00CF01BF02AF039F048F057F066F075F084F093F0EE
:204AA000A2F0B1F0C0F0CFF0DEF0EDF0FCF00BF01AF029F038F047F056F065F074F083F0CE
:204AC00092F0A1F0B0F0BFF0CEF0DDF0ECF0FBF00AF019F028F037F046F055F064F073F0AE
:204AE00082F091F0A0F0AFF0BEF0CDF0DCF0EBF0FAF009F018F027F036F045F054F063F08E
:204B000072F081F090F09FF0AEF0BDF0CCF0DBF0EAF0F9F008F017F026F035F044F053F06D
:204B200062F071F080F08FF09EF0ADF0BCF0CBF0DAF0E9F0F8F007F016F025F034F043F04D
:204B400052F061F070F07FF08EF09DF0ACF0BBF0CAF0D9F0E8F0F7F006F015F024F033F02D
:204B600042F051F060F06FF07EF08DF09CF0ABF0BAF0C9F0D8F0E7F0F6F005F014F023F00D
:204B800032F041F050F05FF06EF07DF08CF09BF0AAF0B9F0C8F0D7F0E6F0F5F004F013F0ED
:204BA00022F031F040F04FF05EF06DF07CF08BF09AF0A9F0B8F0C7F0D6F0E5F0F4F003F0CD
:204BC00012F021F030F03FF04EF05DF06CF07BF08AF099F0A8F0B7F0C6F0D5F0E4F0F3F0AD
:204BE00002F011F020F02FF03EF04DF05CF06BF07AF089F098F0A7F0B6F0C5F0D4F0E3F08D
:204C0000F2F001F010F01FF02EF03DF04CF05BF06AF079F088F097F0A6F0B5F0C4F0D3F06C
:204C2000E2F0F1F0FEF00FF01EF02DF03CF04BF05AF069F078F087F096F0A5F0B4F0C3F04E
:204C4000D2F0E1F0F0F0FEF00EF01DF02CF03BF04AF059F068F077F086F095F0A4F0B3F02D
:204C6000C2F0D1F0E0F0EFF0FEF00DF01CF02BF03AF049F058F067F076F085F094F0A3F00C
:204C8000B2F0C1F0D0F0DFF0EEF0FDF00CF01BF02AF039F048F057F066F075F084F093F0EC
:204CA000A2F0B1F0C0F0CFF0DEF0EDF0FCF00BF01AF029F038F047F056F065F074F083F0CC
:204CC00092F0A1F0B0F0BFF0CEF0DDF0ECF0FBF00AF019F028F037F046F055F064F073F0AC
:204CE00082F091F0A0F0AFF0BEF0CDF0DCF0EBF0FAF009F018F027F036F045F054F063F08C
:204D000072F081F090F09FF0AEF0BDF0CCF0DBF0EAF0F9F008F017F026F035F044F053F06B
:204D200062F071F080F08FF09EF0ADF0BCF0CBF0DAF0E9F0F8F007F016F025F034F043F04B
:204D400052F061F070F07FF08EF09DF0ACF0BBF0CAF0D9F0E8F0F7F006F015F024F033F02B
:204D600042F051F060F06FF07EF08DF09CF0ABF0BAF0C9F0D8F0E7F0F6F005F014F023F00B
:204D800032F041F050F05FF06EF07DF08CF09BF0AAF0B9F0C8F0D7F0E6F0F5F004F013F0EB
:204DA00022F031F040F04FF05EF06DF07CF08BF09AF0A9F0B8F0C7F0D6F0E5F0F4F003F0CB
:204DC00012F021F030F03FF04EF05DF06CF07BF08AF099F0A8F0B7F0C6F0D5F0E4F0F3F0AB
:204DE00002F011F020F02FF03EF04DF05CF06BF07AF089F098F0A7F0B6F0C5F0D4F0E3F08B
:204E0000F2F001F010F01FF02EF03DF04CF05BF06AF079F088F097F0A6F0B5F0C4F0D3F06A
:204E2000E2F0F1F0FEF00FF01EF02DF03CF04BF05AF069F078F087F096F0A5F0B4F0C3F04C
:204E4000D2F0E1F0F0F0FEF00EF01DF02CF03BF04AF059F068F077F086F095F0A4F0B3F02B
:204E6000C2F0D1F0E0F0EFF0FEF00DF01CF02BF03AF049F058F067F076F085F094F0A3F00A
:204E8000B2F0C1F0D0F0DFF0EEF0FDF00CF01BF02AF039F048F057F066F075F084F093F0EA
:204EA000A2F0B1F0C0F0CFF0DEF0EDF0FCF00BF01AF029F038F047F056F065F074F083F0CA
:204EC00092F0A1F0B0F0BFF0CEF0DDF0ECF0FBF00AF019F028F037F046F055F064F073F0AA
:204EE00082F091F0A0F0AFF0BEF0CDF0DCF0EBF0FAF009F018F027F036F045F054F063F08A
:204F000072F081F090F09FF0AEF0BDF0CCF0DBF0EAF0F9F008F017F026F035F044F053F069
:204F200062F071F080F08FF09EF0ADF0BCF0CBF0DAF0E9F0F8F007F016F025F034F043F049
:204F400052F061F070F07FF08EF09DF0ACF0BBF0CAF0D9F0E8F0F7F006F015F024F033F029
:204F600042F051F060F06FF07EF08DF09CF0ABF0BAF0C9F0D8F0E7F0F6F005F014F023F009
:204F800032F041F050F05FF06EF07DF08CF09BF0AAF0B9F0C8F0D7F0E6F0F5F004F013F0E9
:204FA00022F031F040F04FF05EF06DF07CF08BF09AF0A9F0B8F0C7F0D6F0E5F0F4F003F0C9
:204FC00012F021F030F03FF04EF05DF06CF07BF08AF099F0A8F0B7F0C6F0D5F0E4F0F3F0A9
:204FE00002F011F020F02FF03EF04DF05CF06BF07AF089F098F0A7F0B6F0C5F0D4F0E3F089
:20500000F2F001F010F01FF02EF03DF04CF05BF06AF079F088F097F0A6F0B5F0C4F0D3F068
:20502000E2F0F1F0FEF00FF01EF02DF03CF04BF05AF069F078F087F096F0A5F0B4F0C3F04A
:20504000D2F0E1F0F0F0FEF00EF01DF02CF03BF04AF059F068F077F086F095F0A4F0B3F029
:20506000C2F0D1F0E0F0EFF0FEF00DF01CF02BF03AF049F058F067F076F085F094F0A3F008
:20508000B2F0C1F0D0F0DFF0EEF0FDF00CF01BF02AF039F048F057F066F075F084F093F0E8
:2050A000A2F0B1F0C0F0CFF0DEF0EDF0FCF00BF01AF029F038F047F056F065F074F083F0C8
:2050C00092F0A1F0B0F0BFF0CEF0DDF0ECF0FBF00AF019F028F037F046F055F064F073F0A8
:2050E00082F091F0A0F0AFF0BEF0CDF0DCF0EBF0FAF009F018F027F036F045F054F063F088
:2051000072F081F090F09FF0AEF0BDF0CCF0DBF0EAF0F9F008F017F026F035F044F053F067
:2051200062F071F080F08FF09EF0ADF0BCF0CBF0DAF0E9F0F8F007F016F025F034F043F047
:2051400052F061F070F07FF08EF09DF0ACF0BBF0CAF0D9F0E8F0F7F006F015F024F033F027
:2051600042F051F060F06FF07EF08DF09CF0ABF0BAF0C9F0D8F0E7F0F6F005F014F023F007
:2051800032F041F050F05FF06EF07DF08CF09BF0AAF0B9F0C8F0D7F0E6F0F5F004F013F0E7
:2051A00022F031F040F04FF05EF06DF07CF08BF09AF0A9F0B8F0C7F0D6F0E5F0F4F003F0C7
:2051C00012F021F030F03FF04EF05DF06CF07BF08AF099F0A8F0B7F0C6F0D5F0E4F0F3F0A7
:2051E00002F011F020F02FF03EF04DF05CF06BF07AF089F098F0A7F0B6F0C5F0D4F0E3F087
:20520000F2F001F010F01FF02EF03DF04CF05BF06AF079F088F097F0A6F0B5F0C4F0D3F066
:20522000E2F0F1F0FEF00FF01EF02DF03CF04BF05AF069F078F087F096F0A5F0B4F0C3F048
:20524000D2F0E1F0F0F0FEF00EF01DF02CF03BF04AF059F068F077F086F095F0A4F0B3F027
:20526000C2F0D1F0E0F0EFF0FEF00DF01CF02BF03AF049F058F067F076F085F094F0A3F006
:20528000B2F0C1F0D0F0DFF0EEF0FDF00CF01BF02AF039F048F057F066F075F084F093F0E6
:2052A000A2F0B1F0C0F0CFF0DEF0EDF0FCF00BF01AF029F038F047F056F065F074F083F0C6
:2052C00092F0A1F0B0F0BFF0CEF0DDF0ECF0FBF00AF019F028F037F046F055F064F073F0A6
:2052E00082F091F0A0F0AFF0BEF0CDF0DCF0EBF0FAF009F018F027F036F045F054F063F086
:2053000072F081F090F09FF0AEF0BDF0CCF0DBF0EAF0F9F008F017F026F035F044F053F065
:2053200062F071F080F08FF09EF0ADF0BCF0CBF0DAF0E9F0F8F007F016F025F034F043F045
:2053400052F061F070F07FF08EF09DF0ACF0BBF0CAF0D9F0E8F0F7F006F015F024F033F025
:2053600042F051F060F06FF07EF08DF09CF0ABF0BAF0C9F0D8F0E7F0F6F005F014F023F005
:2053800032F041F050F05FF06EF07DF08CF09BF0AAF0B9F0C8F0D7F0E6F0F5F004F013F0E5
:2053A00022F031F040F04FF05EF06DF07CF08BF09AF0A9F0B8F0C7F0D6F0E5F0F4F003F0C5
:2053C00012F021F030F03FF04EF05DF06CF07BF08AF099F0A8F0B7F0C6F0D5F0E4F0F3F0A5
:2053E00002F011F020F02FF03EF04DF05CF06BF07AF089F098F0A7F0B6F0C5F0D4F0E3F085
:20540000F2F001F010F01FF02EF03DF04CF05BF06AF079F088F097F0A6F0B5F0C4F0D3F064
:20542000E2F0F1F0FEF00FF01EF02DF03CF04BF05AF069F078F087F096F0A5F0B4F0C3F046
:20544000D2F0E1F0F0F0FEF00EF01DF02CF03BF04AF059F068F077F086F095F0A4F0B3F025
:20546000C2F0D1F0E0F0EFF0FEF00DF01CF02BF03AF049F058F067F076F085F094F0A3F004
:20548000B2F0C1F0D0F0DFF0EEF0FDF00CF01BF02AF039F048F057F066F075F084F093F0E4
:2054A000A2F0B1F0C0F0CFF0DEF0EDF0FCF00BF01AF029F038F047F056F065F074F083F0C4
:2054C00092F0A1F0B0F0BFF0CEF0DDF0ECF0FBF00AF019F028F037F046F055F064F073F0A4
:2054E00082F091F0A0F0AFF0BEF0CDF0DCF0EBF0FAF009F018F027F036F045F054F063F084
:2055000072F081F090F09FF0AEF0BDF0CCF0DBF0EAF0F9F008F017F026F035F044F053F063
:2055200062F071F080F08FF09EF0ADF0BCF0CBF0DAF0E9F0F8F007F016F025F034F043F043
:2055400052F061F070F07FF08EF09DF0ACF0BBF0CAF0D9F0E8F0F7F006F015F024F033F023
:2055600042F051F060F06FF07EF08DF09CF0ABF0BAF0C9F0D8F0E7F0F6F005F014F023F003
:2055800032F041F050F05FF06EF07DF08CF09BF0AAF0B9F0C8F0D7F0E6F0F5F004F013F0E3
:2055A00022F031F040F04FF05EF06DF07CF08BF09AF0A9F0B8F0C7F0D6F0E5F0F4F003F0C3
:2055C00012F021F030F03FF04EF05DF06CF07BF08AF099F0A8F0B7F0C6F0D5F0E4F0F3F0A3
:2055E00002F011F020F02FF03EF04DF05CF06BF07AF089F098F0A7F0B6F0C5F0D4F0E3F083
:20560000F2F001F010F01FF02EF03DF04CF05BF06AF079F088F097F0A6F0B5F0C4F0D3F062
:20562000E2F0F1F0FEF00FF01EF02DF03CF04BF05AF069F078F087F096F0A5F0B4F0C3F044
:20564000D2F0E1F0F0F0FEF00EF01DF02CF03BF04AF059F068F077F086F095F0A4F0B3F023
:20566000C2F0D1F0E0F0EFF0FEF00DF01CF02BF03AF049F058F067F076F085F094F0A3F002
:20568000B2F0C1F0D0F0DFF0EEF0FDF00CF01BF02AF039F048F057F066F075F084F093F0E2
:2056A000A2F0B1F0C0F0CFF0DEF0EDF0FCF00BF01AF029F038F047F056F065F074F083F0C2
:2056C00092F0A1F0B0F0BFF0CEF0DDF0ECF0FBF00AF019F028F037F046F055F064F073F0A2
:2056E00082F091F0A0F0AFF0BEF0CDF0DCF0EBF0FAF009F018F027F036F045F054F063F082
:2057000072F081F090F09FF0AEF0BDF0CCF0DBF0EAF0F9F008F017F026F035F044F053F061
:2057200062F071F080F08FF09EF0ADF0BCF0CBF0DAF0E9F0F8F007F016F025F034F043F041
:2057400052F061F070F07FF08EF09DF0ACF0BBF0CAF0D9F0E8F0F7F006F015F024F033F021
:2057600042F051F060F06FF07EF08DF09CF0ABF0BAF0C9F0D8F0E7F0F6F005F014F023F001
:2057800032F041F050F05FF06EF07DF08CF09BF0AAF0B9F0C8F0D7F0E6F0F5F004F013F0E1
:2057A00022F031F040F04FF05EF06DF07CF08BF09AF0A9F0B8F0C7F0D6F0E5F0F4F003F0C1
:2057C00012F021F030F03FF04EF05DF06CF07BF08AF099F0A8F0B7F0C6F0D5F0E4F0F3F0A1
:2057E00002F011F020F02FF03EF04DF05CF06BF07AF089F098F0A7F0B6F0C5F0D4F0E3F081
:20580000F2F001F010F01FF02EF03DF04CF05BF06AF079F088F097F0A6F0B5F0C4F0D3F060
:20582000E2F0F1F0FEF00FF01EF02DF03CF04BF05AF069F078F087F096F0A5F0B4F0C3F042
:20584000D2F0E1F0F0F0FEF00EF01DF02CF03BF04AF059F068F077F086F095F0A4F0B3F021
:20586000C2F0D1F0E0F0EFF0FEF00DF01CF02BF03AF049F058F067F076F085F094F0A3F000
:20588000B2F0C1F0D0F0DFF0EEF0FDF00CF01BF02AF039F048F057F066F075F084F093F0E0
:2058A000A2F0B1F0C0F0CFF0DEF0EDF0FCF00BF01AF029F038F047F056F065F074F083F0C0
:2058C00092F0A1F0B0F0BFF0CEF0DDF0ECF0FBF00AF019F028F037F046F055F064F073F0A0
:2058E00082F091F0A0F0AFF0BEF0CDF0DCF0EBF0FAF009F018F027F036F045F054F063F080
:2059000072F081F090F09FF0AEF0BDF0CCF0DBF0EAF0F9F008F017F026F035F044F053F05F
:2059200062F071F080F08FF09EF0ADF0BCF0CBF0DAF0E9F0F8F007F016F025F034F043F03F
:2059400052F061F070F07FF08EF09DF0ACF0BBF0CAF0D9F0E8F0F7F006F015F024F033F01F
:2059600042F051F060F06FF07EF08DF09CF0ABF0BAF0C9F0D8F0E7F0F6F005F014F023F0FF
:2059800032F041F050F05FF06EF07DF08CF09BF0AAF0B9F0C8F0D7F0E6F0F5F004F013F0DF
:2059A00022F031F040F04FF05EF06DF07CF08BF09AF0A9F0B8F0C7F0D6F0E5F0F4F003F0BF
:2059C00012F021F030F03FF04EF05DF06CF07BF08AF099F0A8F0B7F0C6F0D5F0E4F0F3F09F
:2059E00002F011F020F02FF03EF04DF05CF06BF07AF089F098F0A7F0B6F0C5F0D4F0E3F07F
:205A0000F2F001F010F01FF02EF03DF04CF05BF06AF079F088F097F0A6F0B5F0C4F0D3F05E
:205A2000E2F0F1F0FEF00FF01EF02DF03CF04BF05AF069F078F087F096F0A5F0B4F0C3F040
:205A4000D2F0E1F0F0F0FEF00EF01DF02CF03BF04AF059F068F077F086F095F0A4F0B3F01F
:205A6000C2F0D1F0E0F0EFF0FEF00DF01CF02BF03AF049F058F067F076F085F094F0A3F0FE
:205A8000B2F0C1F0D0F0DFF0EEF0FDF00CF01BF02AF039F048F057F066F075F084F093F0DE
:205AA000A2F0B1F0C0F0CFF0DEF0EDF0FCF00BF01AF029F038F047F056F065F074F083F0BE
:205AC00092F0A1F0B0F0BFF0CEF0DDF0ECF0FBF00AF019F028F037F046F055F064F073F09E
:205AE00082F091F0A0F0AFF0BEF0CDF0DCF0EBF0FAF009F018F027F036F045F054F063F07E
:205B000072F081F090F09FF0AEF0BDF0CCF0DBF0EAF0F9F008F017F026F035F044F053F05D
:205B200062F071F080F08FF09EF0ADF0BCF0CBF0DAF0E9F0F8F007F016F025F034F043F03D
:205B400052F061F070F07FF08EF09DF0ACF0BBF0CAF0D9F0E8F0F7F006F015F024F033F01D
:205B600042F051F060F06FF07EF08DF09CF0ABF0BAF0C9F0D8F0E7F0F6F005F014F023F0FD
:205B800032F041F050F05FF06EF07DF08CF09BF0AAF0B9F0C8F0D7F0E6F0F5F004F013F0DD
:205BA00022F031F040F04FF05EF06DF07CF08BF09AF0A9F0B8F0C7F0D6F0E5F0F4F003F0BD
:205BC00012F021F030F03FF04EF05DF06CF07BF08AF099F0A8F0B7F0C6F0D5F0E4F0F3F09D
:205BE00002F011F020F02FF03EF04DF05CF06BF07AF089F098F0A7F0B6F0C5F0D4F0E3F07D
:205C0000F2F001F010F01FF02EF03DF04CF05BF06AF079F088F097F0A6F0B5F0C4F0D3F05C
:205C2000E2F0F1F0FEF00FF01EF02DF03CF04BF05AF069F078F087F096F0A5F0B4F0C3F03E
:205C4000D2F0E1F0F0F0FEF00EF01DF02CF03BF04AF059F068F077F086F095F0A4F0B3F01D
:205C6000C2F0D1F0E0F0EFF0FEF00DF01CF02BF03AF049F058F067F076F085F094F0A3F0FC
:205C8000B2F0C1F0D0F0DFF0EEF0FDF00CF01BF02AF039F048F057F066F075F084F093F0DC
:205CA000A2F0B1F0C0F0CFF0DEF0EDF0FCF00BF01AF029F038F047F056F065F074F083F0BC
:205CC00092F0A1F0B0F0BFF0CEF0DDF0ECF0FBF00AF019F028F037F046F055F064F073F09C
:205CE00082F091F0A0F0AFF0BEF0CDF0DCF0EBF0FAF009F018F027F036F045F054F063F07C
:205D000072F081F090F09FF0AEF0BDF0CCF0DBF0EAF0F9F008F017F026F035F044F053F05B
:205D200062F071F080F08FF09EF0ADF0BCF0CBF0DAF0E9F0F8F007F016F025F034F043F03B
:205D400052F061F070F07FF08EF09DF0ACF0BBF0CAF0D9F0E8F0F7F006F015F024F033F01B
:205D600042F051F060F06FF07EF08DF09CF0ABF0BAF0C9F0D8F0E7F0F6F005F014F023F0FB
:205D800032F041F050F05FF06EF07DF08CF09BF0AAF0B9F0C8F0D7F0E6F0F5F004F013F0DB
:205DA00022F031F040F04FF05EF06DF07CF08BF09AF0A9F0B8F0C7F0D6F0E5F0F4F003F0BB
:205DC00012F021F030F03FF04EF05DF06CF07BF08AF099F0A8F0B7F0C6F0D5F0E4F0F3F09B
:205DE00002F011F020F02FF03EF04DF05CF06BF07AF089F098F0A7F0B6F0C5F0D4F0E3F07B
:205E0000F2F001F010F01FF02EF03DF04CF05BF06AF079F088F097F0A6F0B5F0C4F0D3F05A
:205E2000E2F0F1F0FEF00FF01EF02DF03CF04BF05AF069F078F087F096F0A5F0B4F0C3F03C
:205E4000D2F0E1F0F0F0FEF00EF01DF02CF03BF04AF059F068F077F086F095F0A4F0B3F01B
:205E6000C2F0D1F0E0F0EFF0FEF00DF01CF02BF03AF049F058F067F076F085F094F0A3F0FA
:205E8000B2F0C1F0D0F0DFF0EEF0FDF00CF01BF02AF039F048F057F066F075F084F093F0DA
:205EA000A2F0B1F0C0F0CFF0DEF0EDF0FCF00BF01AF029F038F047F056F065F074F083F0BA
:205EC00092F0A1F0B0F0BFF0CEF0DDF0ECF0FBF00AF019F028F037F046F055F064F073F09A
:205EE00082F091F0A0F0AFF0BEF0CDF0DCF0EBF0FAF009F018F027F036F045F054F063F07A
:205F000072F081F090F09FF0AEF0BDF0CCF0DBF0EAF0F9F008F017F026F035F044F053F059
:205F200062F071F080F08FF09EF0ADF0BCF0CBF0DAF0E9F0F8F007F016F025F034F043F039
:205F400052F061F070F07FF08EF09DF0ACF0BBF0CAF0D9F0E8F0F7F006F015F024F033F019
:205F600042F051F060F06FF07EF08DF09CF0ABF0BAF0C9F0D8F0E7F0F6F005F014F023F0F9
:205F800032F041F050F05FF06EF07DF08CF09BF0AAF0B9F0C8F0D7F0E6F0F5F004F013F0D9
:205FA00022F031F040F04FF05EF06DF07CF08BF09AF0A9F0B8F0C7F0D6F0E5F0F4F003F0B9
:205FC00012F021F030F03FF04EF05DF06CF07BF08AF099F0A8F0B7F0C6F0D5F0E4F0F3F099
:205FE00002F011F020F02FF03EF04DF05CF06BF07AF089F098F0A7F0B6F0C5F0D4F0E3F079
:20600000F2F001F010F01FF02EF03DF04CF05BF06AF079F088F097F0A6F0B5F0C4F0D3F058
:20602000E2F0F1F0FEF00FF01EF02DF03CF04BF05AF069F078F087F096F0A5F0B4F0C3F03A
:20604000D2F0E1F0F0F0FEF00EF01DF02CF03BF04AF059F068F077F086F095F0A4F0B3F019
:20606000C2F0D1F0E0F0EFF0FEF00DF01CF02BF03AF049F058F067F076F085F094F0A3F0F8
:20608000B2F0C1F0D0F0DFF0EEF0FDF00CF01BF02AF039F048F057F066F075F084F093F0D8
:2060A000A2F0B1F0C0F0CFF0DEF0EDF0FCF00BF01AF029F038F047F056F065F074F083F0B8
:2060C00092F0A1F0B0F0BFF0CEF0DDF0ECF0FBF00AF019F028F037F046F055F064F073F098
:2060E00082F091F0A0F0AFF0BEF0CDF0DCF0EBF0FAF009F018F027F036F045F054F063F078
:2061000072F081F090F09FF0AEF0BDF0CCF0DBF0EAF0F9F008F017F026F035F044F053F057
:2061200062F071F080F08FF09EF0ADF0BCF0CBF0DAF0E9F0F8F007F016F025F034F043F037
:2061400052F061F070F07FF08EF09DF0ACF0BBF0CAF0D9F0E8F0F7F006F015F024F033F017
:2061600042F051F060F06FF07EF08DF09CF0ABF0BAF0C9F0D8F0E7F0F6F005F014F023F0F7
:2061800032F041F050F05FF06EF07DF08CF09BF0AAF0B9F0C8F0D7F0E6F0F5F004F013F0D7
:2061A00022F031F040F04FF05EF06DF07CF08BF09AF0A9F0B8F0C7F0D6F0E5F0F4F003F0B7
:2061C00012F021F030F03FF04EF05DF06CF07BF08AF099F0A8F0B7F0C6F0D5F0E4F0F3F097
:2061E00002F011F020F02FF03EF04DF05CF06BF07AF089F098F0A7F0B6F0C5F0D4F0E3F077
:20620000F2F001F010F01FF02EF03DF04CF05BF06AF079F088F097F0A6F0B5F0C4F0D3F056
:20622000E2F0F1F0FEF00FF01EF02DF03CF04BF05AF069F078F087F096F0A5F0B4F0C3F038
:20624000D2F0E1F0F0F0FEF00EF01DF02CF03BF04AF059F068F077F086F095F0A4F0B3F017
:20626000C2F0D1F0E0F0EFF0FEF00DF01CF02BF03AF049F058F067F076F085F094F0A3F0F6
:20628000B2F0C1F0D0F0DFF0EEF0FDF00CF01BF02AF039F048F057F066F075F084F093F0D6
:2062A000A2F0B1F0C0F0CFF0DEF0EDF0FCF00BF01AF029F038F047F056F065F074F083F0B6
:2062C00092F0A1F0B0F0BFF0CEF0DDF0ECF0FBF00AF019F028F037F046F055F064F073F096
:2062E00082F091F0A0F0AFF0BEF0CDF0DCF0EBF0FAF009F018F027F036F045F054F063F076
:2063000072F081F090F09FF0AEF0BDF0CCF0DBF0EAF0F9F008F017F026F035F044F053F055
:2063200062F071F080F08FF09EF0ADF0BCF0CBF0DAF0E9F0F8F007F016F025F034F043F035
:2063400052F061F070F07FF08EF09DF0ACF0BBF0CAF0D9F0E8F0F7F006F015F024F033F015
:2063600042F051F060F06FF07EF08DF09CF0ABF0BAF0C9F0D8F0E7F0F6F005F014F023F0F5
:2063800032F041F050F05FF06EF07DF08CF09BF0AAF0B9F0C8F0D7F0E6F0F5F004F013F0D5
:2063A00022F031F040F04FF05EF06DF07CF08BF09AF0A9F0B8F0C7F0D6F0E5F0F4F003F0B5
:2063C00012F021F030F03FF04EF05DF06CF07BF08AF099F0A8F0B7F0C6F0D5F0E4F0F3F095
:2063E00002F011F020F02FF03EF04DF05CF06BF07AF089F098F0A7F0B6F0C5F0D4F0E3F075
:20640000F2F001F010F01FF02EF03DF04CF05BF06AF079F088F097F0A6F0B5F0C4F0D3F054
:20642000E2F0F1F0FEF00FF01EF02DF03CF04BF05AF069F078F087F096F0A5F0B4F0C3F036
:20644000D2F0E1F0F0F0FEF00EF01DF02CF03BF04AF059F068F077F086F095F0A4F0B3F015
:20646000C2F0D1F0E0F0EFF0FEF00DF01CF02BF03AF049F058F067F076F085F094F0A3F0F4
:20648000B2F0C1F0D0F0DFF0EEF0FDF00CF01BF02AF039F048F057F066F075F084F093F0D4
:2064A000A2F0B1F0C0F0CFF0DEF0EDF0FCF00BF01AF029F038F047F056F065F074F083F0B4
:2064C00092F0A1F0B0F0BFF0CEF0DDF0ECF0FBF00AF019F028F037F046F055F064F073F094
:2064E00082F091F0A0F0AFF0BEF0CDF0DCF0EBF0FAF009F018F027F036F045F054F063F074
:2065000072F081F090F09FF0AEF0BDF0CCF0DBF0EAF0F9F008F017F026F035F044F053F053
:2065200062F071F080F08FF09EF0ADF0BCF0CBF0DAF0E9F0F8F007F016F025F034F043F033
:2065400052F061F070F07FF08EF09DF0ACF0BBF0CAF0D9F0E8F0F7F006F015F024F033F013
:2065600042F051F060F06FF07EF08DF09CF0ABF0BAF0C9F0D8F0E7F0F6F005F014F023F0F3
:2065800032F041F050F05FF06EF07DF08CF09BF0AAF0B9F0C8F0D7F0E6F0F5F004F013F0D3
:2065A00022F031F040F04FF05EF06DF07CF08BF09AF0A9F0B8F0C7F0D6F0E5F0F4F003F0B3
:2065C00012F021F030F03FF04EF05DF06CF07BF08AF099F0A8F0B7F0C6F0D5F0E4F0F3F093
:2065E00002F011F020F02FF03EF04DF05CF06BF07AF089F098F0A7F0B6F0C5F0D4F0E3F073
:20660000F2F001F010F01FF02EF03DF04CF05BF06AF079F088F097F0A6F0B5F0C4F0D3F052
:20662000E2F0F1F0FEF00FF01EF02DF03CF04BF05AF069F078F087F096F0A5F0B4F0C3F034
:20664000D2F0E1F0F0F0FEF00EF01DF02CF03BF04AF059F068F077F086F095F0A4F0B3F013
:20666000C2F0D1F0E0F0EFF0FEF00DF01CF02BF03AF049F058F067F076F085F094F0A3F0F2
:20668000B2F0C1F0D0F0DFF0EEF0FDF00CF01BF02AF039F048F057F066F075F084F093F0D2
:2066A000A2F0B1F0C0F0CFF0DEF0EDF0FCF00BF01AF029F038F047F056F065F074F083F0B2
:2066C00092F0A1F0B0F0BFF0CEF0DDF0ECF0FBF00AF019F028F037F046F055F064F073F092
:2066E00082F091F0A0F0AFF0BEF0CDF0DCF0EBF0FAF009F018F027F036F045F054F063F072
:2067000072F081F090F09FF0AEF0BDF0CCF0DBF0EAF0F9F008F017F026F035F044F053F051
:2067200062F071F080F08FF09EF0ADF0BCF0CBF0DAF0E9F0F8F007F016F025F034F043F031
:2067400052F061F070F07FF08EF09DF0ACF0BBF0CAF0D9F0E8F0F7F006F015F024F033F011
:2067600042F051F060F06FF07EF08DF09CF0ABF0BAF0C9F0D8F0E7F0F6F005F014F023F0F1
:2067800032F041F050F05FF06EF07DF08CF09BF0AAF0B9F0C8F0D7F0E6F0F5F004F013F0D1
:2067A00022F031F040F04FF05EF06DF07CF08BF09AF0A9F0B8F0C7F0D6F0E5F0F4F003F0B1
:2067C00012F021F030F03FF04EF05DF06CF07BF08AF099F0A8F0B7F0C6F0D5F0E4F0F3F091
:2067E00002F011F020F02FF03EF04DF05CF06BF07AF089F098F0A7F0B6F0C5F0D4F0E3F071
:20680000F2F001F010F01FF02EF03DF04CF05BF06AF079F088F097F0A6F0B5F0C4F0D3F050
:20682000E2F0F1F0FEF00FF01EF02DF03CF04BF05AF069F078F087F096F0A5F0B4F0C3F032
:20684000D2F0E1F0F0F0FEF00EF01DF02CF03BF04AF059F068F077F086F095F0A4F0B3F011
:20686000C2F0D1F0E0F0EFF0FEF00DF01CF02BF03AF049F058F067F076F085F094F0A3F0F0
:20688000B2F0C1F0D0F0DFF0EEF0FDF00CF01BF02AF039F048F057F066F075F084F093F0D0
:2068A000A2F0B1F0C0F0CFF0DEF0EDF0FCF00BF01AF029F038F047F056F065F074F083F0B0
:2068C00092F0A1F0B0F0BFF0CEF0DDF0ECF0FBF00AF019F028F037F046F055F064F073F090
:2068E00082F091F0A0F0AFF0BEF0CDF0DCF0EBF0FAF009F018F027F036F045F054F063F070
:2069000072F081F090F09FF0AEF0BDF0CCF0DBF0EAF0F9F008F017F026F035F044F053F04F
